:020000040800F2
:10000000300D0020F1000008951100081D0E0008B9
:1000100000000000000000000000000000000000E0
:10002000000000000000000000000000A513000810
:1000300000000000000000003912000861140008F0
:100040001D0100081D010008000000001D0100083E
:100050001D0100081D0100081D0100081D01000808
:100060001D0100081D010008B10900081D0100085C
:100070001D0100081D0100081D0100081D010008E8
:100080001D0100081D0100081D0100081D010008D8
:100090001D0100081D0100081D0100081D010008C8
:1000A000710A00081D0100081D0100081D0100085B
:1000B0001D0100081D0100081D0100081D010008A8
:1000C000000000001D0100081D0100081D010008BE
:1000D0001D0100081D0100081D0100080348854698
:1000E00000F0CEFA0048004729220008300D002019
:1000F0000B4802680B480240120C92020A4940F277
:10010000000001C1121F002AFBD10848804708489F
:100110000047FEE7FEE7FEE7FEE7FEE7FEE700003A
:10012000E00BFF1F0000FFFF00000020811400080B
:10013000DD00000803460B439B0703D009E008C914
:10014000121F08C0042AFAD203E00B780370401C87
:10015000491C521EF9D2704703460A780270401CAF
:10016000491C002AF9D1184670470000F0B507462F
:100170000846584087B0C00F049048000E4659000A
:1001800040084908BC1A884105D2384631461E4607
:1001900017460B4602465800400810434CD0300D1D
:1001A000039040055900400D490D0590401A0290FA
:1001B000402872DA18030121000B09050843019059
:1001C00004980092002805D00199524200208841ED
:1001D00000920190029840210A1A0199009800F0BB
:1001E0000FF905460C466B4607CB00F02AF9C019FB
:1001F0007141039A0E0D0023D71756401A467A40D4
:10020000164344D0049A002A2DD0029A012A039A58
:1002100015DC1205C01A914101263605001C7141FA
:10022000D20F059ED2070093019202962A462346DA
:1002300000F027F907B0F0BD38463146FAE7160559
:10024000224A0F46B218C01AB74101210905001C05
:100250004F4100187F41114618187941E20F1043B1
:100260006D19644113E0E2076D0815436408C20785
:100270001443039A01261205C01A91413605001C49
:100280007141CE07400830434908C01851412A4601
:10029000234600F0E9F8CDE7FFE70498012240008B
:1002A000C117121A00238B4104983146C417381A1B
:1002B000A141EEE730B40124E407634030BC55E7C8
:1002C00030B40124E407614030BC4FE70000E0FF98
:1002D000F0B51FB488B00B990998002448400999DB
:1002E000C00F490049080991C0070B9900904900C7
:1002F00049080B9109990898A64608431CD00B9908
:100300000A98084318D0099801244000420D48007B
:10031000410D099824050003000B204309900B9818
:100320000003000B20430B9050181C49401800227A
:1003300001901446104605E0002001460DB0F0BDC6
:10034000032801DA034600E003239C46C11A0AAEE3
:100350000AE05F0008ADED5B4F00F75B7D430027CF
:10036000AA187C41491C5B1E6145F2DD410004ABCB
:100370005A522104120C0A43240C401C0828DFDBCB
:10038000019802900099704601910090059B049A93
:100390000799069800F075F8D0E700000DFCFFFF04
:1003A000F0B51FB40646002082B0054640240191F6
:1003B00000901BE0019922460F46304600F030F8CD
:1003C000049A059B801A994110D31046194622467B
:1003D00000F016F8361A8F410197224601200021BD
:1003E000009F00F00DF838184D4100902046641E23
:1003F0000028DFDC019B00982946324607B0F0BD9B
:1004000010B5202A04DB0146203A9140002010BD9F
:10041000914020239C1A0346E3401943904010BDAD
:1004200010B5202A04DB0846203AD040002110BD38
:100430000B46D340D0402024A21A914008431946CD
:1004400010BD10B5202A06DBCB170846203A104114
:10045000C1170B4306E00B461341D0402024A21ADB
:1004600091400843194610BD10B5002B08DA00244E
:10047000401C614192185B411A4301D14008400081
:1004800010BDF0B51FB482B005460C0003D008467D
:1004900002F0BAF902E002F0B7F92030024600900B
:1004A00021462846FFF7ACFF049B059A04460F46F9
:1004B00018431143084314D0184610431BD000982A
:1004C00040210A1A18460599FFF7AAFF05460E466D
:1004D000009A05990498FFF793FF084305D001207F
:1004E00004E02046394607B0F0BD0020C11705439F
:1004F0000E432C43374300990E986305401A790543
:10050000E40A00220C43FD0A0A3002D5002001460D
:10051000E9E70105101969410C9C0D9D001969411D
:10052000FFF7A2FFDFE70000F0B50C465C4085B0A6
:10053000E40FE40703944C00002664085900944635
:10054000490802460296224321D062460A431ED041
:100550006200570D4A000E032303550D0124024685
:100560002C492405781B1B0B360B401823432643CC
:10057000614600901C46501AB44103D30098401CB9
:10058000009002E0921800985B41002803DA0020F6
:10059000014605B0F0BD0020012109050746864649
:1005A00011E064461D46141BB54106D36546521B37
:1005B000B341744607430C43A646CD07400849089B
:1005C000284392185B4105460D43EAD11046184373
:1005D00013D06046194650407140084306D060462B
:1005E000101AB34106D20122002306E000220123A3
:1005F000DB0702E00122D243531000987446010544
:10060000381C6141029C039D00196941FFF72CFFD2
:10061000BFE70000FD0300004A0009030123090BA6
:100620001B0519430A4B10B5520D9A4202DA0020FD
:10063000014610BD064B34339A4203DC9A1AFFF789
:10064000EFFE10BD034BD218FFF7DAFE10BD00001D
:10065000FF030000CDFBFFFF10B5002904DB0124E0
:10066000E40740428C412146002B04DB1C46012359
:10067000DB075242A341994200D1904210BD0000D5
:100680001CB5094800900948019005460126009CC8
:1006900005E0E36807CC33430C3C98471034AC4288
:1006A000F7D3FFF71FFD0000403500086035000854
:1006B00070B50446002903D000202022012310E059
:1006C000002801D00020C043C046C0460DE02546AA
:1006D000D5408D4205D30D469540641B1D4695407F
:1006E00040191546521E002DF1DC214670BD80B523
:1006F00084B001F045F802200021019101F086F953
:10070000019940F2001001F081F9019801F022F8FE
:1007100001210391084600F0D9FF019803990322B3
:10072000029201F0C9F802990398490401F08AF88D
:100730000399084601F046F801F030F801F036F868
:10074000039801F0E9F904B080BD000080B582B0E3
:100750000020019001F03EFA01980A2101F0E4FB2B
:10076000022001F099F8019801F042FA294801F0BD
:10077000AEFF02B080BDC04680B5264801F09EFFA6
:1007800080BDC04680B582B001900198B749401A3B
:1007900041424841964908700020009001F01AFA41
:1007A0000098019901F094FB00980A2101F0BCFB2C
:1007B00002B080BD80B58AB0144809901448006822
:1007C0000999B0FBF1F0401E08A901910880114879
:1007D000039001F01FFF04A8029001F0F1FF019BBC
:1007E0000299039800220A804A808A801B88069317
:1007F0008A81CA8101F074FF039801F001FF039818
:10080000202101F0C9FF0AB080BDC04620A1070029
:10081000040000200004004080B500F055FD00F009
:1008200019FAFFF7C7FF00F0E9F8FFF760FF80BD96
:1008300080B58AB08D480A2101910222029200F00F
:100840003BF90199029A09AB03931880224800F002
:1008500033F90146039808AA04921180008801F038
:100860002FF9014604981D4A05921180008801F075
:1008700027F9059902461A480280008809888842AB
:100880001EDBFFE71648008814490988411A07A8AB
:10089000018006A900220A80134B01221A700088E9
:1008A00000F0CCFC38B1FFE706980E4908800F49EC
:1008B0000120087003E00D4900200870FFE708E000
:1008C000084900200880084908700849012008707C
:1008D000FFE70AB080BDC046FC08002024000020CD
:1008E00026000020280000201509002014090020FF
:1008F00080B501F071FE00F0B7F900F06BFCFFF776
:100900008BFF80BDD24920200860704710B583B0AE
:1009100002AA10700191694600200870FFE768463E
:10092000007802A90978884232DAFFE701A8007846
:10093000C00730B1FFE717490878802210430870DC
:1009400005E0144908787F2210400870FFE7124A3A
:100950001078411C117007280DD1FFE70D49087868
:100960000E4C23785A1C22700D4AD0540020087077
:1009700009490870FFE7074908784008087001989E
:1009800040080190FFE70098401C69460870C6E7E0
:1009900003B010BD1C00002010000020110000203A
:1009A00012000020014920200860704728040048F8
:1009B00080B50020022101F027FAB8B1FFE700203E
:1009C000022101F00FFAFFF7D7FE38490120087025
:1009D00007480078C00720B1FFE7074901200870E9
:1009E00003E0044901200870FFE7FFE780BDC0462F
:1009F0002B090020110900201009002080B58CB0BF
:100A00000020019001F010F904A8009001F072FAA2
:100A10000099019805220B928876134A04920A22C3
:100A200002920892114A069240F20012059240F298
:100A3000004207920876012203924A7642F20002AF
:100A4000099201F01DF9019801F0E0F8019801F018
:100A50007DFA0198022101F0B3F90298039901F09F
:100A600051FC0CB080BDC0464C240140E808002079
:100A700080B5402001F0F2FAB8B1FFE7402001F064
:100A8000E5FA0A480078C00770B1FFE70920C00600
:100A9000402101F01BFB401E4142484104490870BF
:100AA000044901200870FFE7FFE780BD080000202F
:100AB000090000201209002094B0129011A80180B2
:100AC00010A8028000200E9011980AA908801298A0
:100AD00020B1FFE711A8008820B9FFE713A9002083
:100AE0000880AAE00AA800880B2804D3FFE70AA917
:100AF0000A200880FFE70FA900200880FFE70FA861
:100B000000880AA9098888420FDAFFE712980FA91E
:100B10000A885200805A09884A0005A98852FFE7CE
:100B20000F98401C0FA90880E9E70FA90120088051
:100B3000FFE70FA800880AA90988884243DAFFE77F
:100B40000FA80088410005A8405A04A908800F9802
:100B5000401E03A90880FFE7002003A9095E0029C1
:100B6000029012D4FFE70021009103A8405E4100EB
:100B700005A8415A04A8028801209142019001DC95
:100B80000098019001980290FFE70298C00760B1B9
:100B9000FFE7002003A9085E430005A8C218C05A59
:100BA00050800398401E0880D6E70498002203A9CD
:100BB000895E490005AA89184880FFE70F98401C04
:100BC0000FA90880B5E710A8008841000AA800888E
:100BD000884204D8FFE713A9002008802DE0109870
:100BE0000DA908800A981099401A0CA908800C9841
:100BF0000D99401A0BA908800D980FA90880FFE7EE
:100C00000FA800880CA9098888420EDAFFE70FA810
:100C10000088410005A8415A0E9840180E90FFE741
:100C20000F98401C0FA90880EAE70E980BA90988C5
:100C3000B0FBF1F013A90880FFE713A8008814B0F7
:100C400070470000024948F2000008607047C04643
:100C50001800004880B50920C006032100220223A5
:100C600001F04AFA80BD000080B590B041F200105A
:100C700001F0A6FB082001F04BFC102001F048FC1D
:100C800000200F90FFE70F9801281ED8FFE70F986C
:100C900041005F48405A01F093FB0F9882005D4885
:100CA0000E9080585C490D918B580121002201F073
:100CB00023FA0D980E990F9A9200805889588862ED
:100CC000FFE70F98401C0F90DDE74A4801F078FBE2
:100CD000494801210A910022099244F2000300933D
:100CE00001F00AFA0098454908604548059001F06E
:100CF00067FB099A9348069040F20013114601F0F1
:100D0000FBF94048079001F05BFB099A0920C006F7
:100D100008908023114601F0EFF9079801F050FB8D
:100D20000898099A0A992023029301F0E5F902999B
:100D30000798354A0B92116001F042FB0898099A16
:100D40000A9948F20003019301F0D6F90199059838
:100D50000B9A116001F034FB029B0698099A0A99DC
:100D600001F0CAF902990598284A0392116001F02E
:100D700027FB0698099A0A9908230C9301F0BCF9FD
:100D8000069809990A9A0C9B01F002FA039A0598B1
:100D90000C99116001F014FB0698099A0A994023F6
:100DA000049301F0A9F9049B069809990A9A01F0A5
:100DB000EFF9039A04990598116001F001FB069878
:100DC000099A0A9B114601F097F9079801F0F8FA81
:100DD0000898099A0A990C9B01F08EF908980999CC
:100DE0000A9A0C9B01F0D4F90B990C98086010B08A
:100DF00080BDC046130D00000008004828080048C8
:100E0000120D0000110D00002800004828040048C1
:100E1000003100080C31000804310008FFE7FEE74C
:100E200080B5FFF76FFDFFF70DFFFFF7BBFD80BD3E
:100E300080B588B0079006A90020087005A9087041
:100E4000079820B9FFE781490120087077E07F49C2
:100E500000200870FFE70920C006009008210391D8
:100E600001F022F9079800F06FF803990246009804
:100E7000079B9A7301F021F907980178062000F08A
:100E800093FA079841780420029000F08DFA0398B5
:100E90000799897800F088FA0798C178022000F055
:100EA00083FA079801794079000241180A200490DA
:100EB00000F07AFA079881790120019000F074FA25
:100EC00002980799C97900F06FFA02980799097A90
:100ED00000F06AFA02980799497A00F065FA0298D8
:100EE0000799897A00F060FA02980799C97A00F0A8
:100EF0005BFA01980799097B00F056FA0298079966
:100F0000497B00F051FA03980799897B00F04CFA6D
:100F1000049800F00FFEFFE70A48012101F0D6F81F
:100F200068B9FFE70698401C06A90870C0B20428FB
:100F300004DBFFE745490120087000E08BE708B0BB
:100F400080BDC0460004004880B586B00490049877
:100F500020B9FFE705A90020087055E02C490020C2
:100F600008702C49039108702B4908700498017887
:100F70000620FFF7CBFC0498417804200290FFF78D
:100F8000C5FC049881780820FFF7C0FC0498C1785C
:100F90000220FFF7BBFC0498017940790002411858
:100FA0000A20FFF7B3FC0498817901200190FFF734
:100FB000ADFC02980499C979FFF7A8FC029804993E
:100FC000097AFFF7A3FC02980499497AFFF79EFC7F
:100FD00002980499897AFFF799FC02980499C97AD2
:100FE000FFF794FC01980499097BFFF78FFC0298A6
:100FF0000499497BFFF78AFC03980178074800F0C1
:101000006BFD05A90870FFE705A8007806B080BD54
:1010100010000020110000201C0000201200002001
:1010200080B582B00190019800F088F8FFF7F8FED3
:101030000648007820B9FFE7064801F0D5FB03E039
:10104000034801F0D1FBFFE702B080BD1D00002086
:101050006C3200087C32000880B582B001900198A3
:1010600008B9FFE74AE0264801F0BEFB0198417845
:10107000244801F0B9FB01988178234801F0B4FBC2
:101080000198C178214801F0AFFB019801794079BE
:10109000000241181E4801F0A7FB019881791D4804
:1010A00001F0A2FB0198C1791B4801F09DFB01985A
:1010B000017A1A4801F098FB0198417A184801F02A
:1010C00093FB0198817A174801F08EFB0198C17A51
:1010D000154801F089FB0198017B144801F084FB5D
:1010E0000198417B124801F07FFB0198817B1148F8
:1010F00001F07AFB104801F077FBFFE702B080BDFA
:10110000DA340008E13200086D3400088D3200083E
:10111000A3340008B13300085D33000835340008FB
:1011200033330008B732000809330008D73300080A
:1011300087330008FD3300084032000880B582B0D4
:1011400001900198FFF774FE02B080BD80B50C4994
:101150000020087037480078012807D1FFE70B49C5
:10116000002008700A48FFF70DFB06E00549002043
:1011700008700548FFF706FBFFE7FFF7E7FA80BDB9
:101180000800002010090020E808002011090020B4
:10119000FC08002080B5012001F0A2F9012807D148
:1011A000FFE7FFE7FFE701200028FBD1FFE70FE0A3
:1011B000022001F095F9012807D1FFE7FFE7FFE7DB
:1011C00001200028FBD1FFE701E0FFE7FEE7FFE792
:1011D00080BD000080B584B041F2001001F0F0F84D
:1011E000444801F0EDF80920C00600900022019269
:1011F00040230293114600F07FFF0098029900F00F
:1012000065FF01460198491E4A425141094A117041
:10121000062101F00BF9019902980222039200F0D5
:10122000A5FE029800F012FF0399182001F06AF859
:1012300004B080BD09000020FFE7FEE785B003AAE7
:10124000108002911E480078012809D8FFE7039812
:101250001B4B19784A1C1A704A001A498852FFE73A
:1012600017480078022823D3FFE700200190694641
:101270000870FFE76846007801280ED8FFE7684647
:10128000007841000F48415A019840180190FFE74B
:101290000098401C69460870ECE7019840080299E4
:1012A000088007490020087004A90120087003E0A5
:1012B00004A900200870FFE704A8007805B0704773
:1012C0001E0000202000002080B50A4801F078F8B8
:1012D000094801F075F8094801F072F8084801F072
:1012E0006FF8084801F06CF8002040F2004101F06E
:1012F00033F880BD110D000009110000150C00002D
:10130000170C00000B11000080B586B0059004A8F2
:101310000170FFE79A48007818B9FFE700F0FAF883
:10132000FFE7FFE7EFF3108072B6009005981821F1
:10133000414393484018183003900398C068401CFC
:101340000290029803998968884203D1FFE7002040
:101350000290FFE703984069022809D1FFE7FFE701
:10136000029803990969884201D1FFE7F8E7FFE78E
:1013700002980399096988420BD0FFE70498039A01
:101380005168D268885402980399C860012001907E
:1013900002E000200190FFE7009880F31088019898
:1013A00006B080BDFFE7FEE780B586B005AA1070E5
:1013B000049103A900200870FFE703A8007805A99D
:1013C0000978884222DAFFE704A80078C00728B12C
:1013D000FFE70F48402100F070FE04E00C48402178
:1013E00000F062FEFFE70A4801900821029100F038
:1013F00064FE0198029900F057FE0498400804909A
:10140000FFE70398401C03A90870D6E706B080BD2B
:101410000004004880B584B002900298401E000E7F
:1014200018B1FFE70120039011E00298401E09491E
:10143000086000200190C043032100F0C7F8019824
:1014400005490860054A072111600390FFE70398EA
:1014500004B080BD14E000E018E000E010E000E01F
:1014600080B500F0ABFB04490868401C08600349E4
:101470000120087080BDC0462C09002013090020FF
:1014800080B51C490868012210430860FFE719482D
:1014900000688007002801D4FFE7F8E716490868CC
:1014A000032290430860134A10680D231B049843DD
:1014B00010600868114A1040086011490868114A14
:1014C0001040086010490020086010490868012297
:1014D00010430860FFE70D4800688007002801D42A
:1014E000FFE7F8E701F022F80120C006002100F034
:1014F00021FF80BD00100240081002400CC7FF8889
:101500008C1002407CE0FFFF0C100240741002407F
:101510007047000080B582B01948019001990320FE
:10152000086101994861019816498161019A16483C
:10153000D061019A40F600001062019A002090628A
:10154000019A5062019AD062019A1166019A0F497C
:101550005166019A10219166019908670199C86640
:10156000019948670198C01D0949FEF7F5FD0198EA
:101570000849FEF7F1FD01992020887102B080BD75
:101580002C00002035350008E4000020D4000020A5
:10159000313500082A35000881B0014668460170DF
:1015A0000021405600280DD4FFE70021684641562F
:1015B0001F200A4602400120904049098900024A42
:1015C0008850FFE701B0704700E100E070B582B0DD
:1015D000024601A80270009100214056002816D44E
:1015E000FFE7002401A908570322D3431840364AD5
:1015F000805809578C07E50EFF24AC40A043009C9F
:10160000A401E4B2AC402043194088501AE001A97B
:1016100008780F24204008380322D3431840294A71
:101620008058002549578D07EE0EFF25B540A84389
:10163000009DAD01EDB2B540284321400839194065
:101640008850FFE702B070BD70B582B0024601A8B5
:101650000270009100214056002816D4FFE70024B4
:1016600001A908570322D3431840174A8058095745
:101670008C07E50EFF24AC40A043009CA401E4B21B
:10168000AC402043194088501AE001A908780F2483
:10169000204008380322D34318400A4A80580025C6
:1016A00049578D07EE0EFF25B540A843009DAD01BB
:1016B000EDB2B54028432140083919408850FFE772
:1016C00002B070BD1CED00E000E400E083B0024613
:1016D00002A80270019100780090012804D0FFE771
:1016E0000098022817D02DE0019898B1FFE70198E3
:1016F00010280FD8FFE7C0490A680F200005824371
:101700000A60019A1205124BD21802400868104371
:101710000860FFE717E0019898B1FFE701980428F7
:101720000FD8FFE709490A680320000582430A60D1
:10173000019A1205064BD21802400868104308604F
:10174000FFE700E0FFE703B07047C04638240140E0
:101750000000F0FF81B00090009838B1FFE7D74952
:10176000086840F600021043086006E0D3490868A4
:1017700040F6000290430860FFE701B07047C046A2
:1017800080B582B00448019000F03EFE019800F060
:1017900029FE02B080BDC04609090000C74908689B
:1017A00040F20012104308607047C046C34800680A
:1017B000C00730B9FFE7C14908680122104308603B
:1017C000FFE7704782B001AA107068460170007888
:1017D00001281AD1FFE701A80078C00738B1FFE758
:1017E000B64908680122120510430860FFE701A806
:1017F00000788007002807D5FFE7B049086848F25D
:10180000000210430860FFE719E001A80078C00754
:1018100038B1FFE7A9490868012212059043086022
:10182000FFE701A800788007002807D5FFE7A34954
:10183000086848F2000290430860FFE7FFE702B043
:101840007047C04683B0024602A80270019100783A
:101850000090012804D0FFE7009802280CD017E080
:1018600096490A680720400482430A60019A0240B0
:101870000868104308600CE090490A6847F20000CD
:1018800082430A60019A024008681043086000E041
:10189000FFE703B07047C04681B000900098C24394
:1018A00003480243034908681040086001B07047CC
:1018B000E0FFFF3F00240140B0B585B0034604A817
:1018C000037003AB19700292007805281ADCFFE759
:1018D0004B490868019004AB1C780520024662431E
:1018E0000F2425469540019AAA43019203AA127833
:1018F00022401B7858438240019810430190019880
:1019000008603DE004A800780B281CDCFFE73B4999
:101910000868019004AB1C780520024662431E3A19
:101920000F2425469540019AAA43019203AA1278F2
:1019300022401B7858431E38824001981043019082
:10194000019808601BE02C490868019004AB1C78E2
:101950000520024662433C3A0F2425469540019AF1
:10196000AA43019203AA127822401B7858433C38BC
:10197000824001981043019001980860FFE7FFE75B
:1019800003A80078092819DCFFE71F4908680090C0
:1019900003AB1C780320024662430724254695408A
:1019A000009AAA430092029A22401B785843824030
:1019B000009810430090009808601AE011490868E8
:1019C000009003AB1C780320024662431E3A0724B2
:1019D00025469540009AAA430092029A22401B781D
:1019E00058431E38824000981043009000980860C9
:1019F000FFE705B0B0BDC0462C24014030240140B3
:101A0000342401400C2401401024014082B0019094
:101A1000684601700078012826D1FFE701A84078C8
:101A2000C00738B1FFE72449086840F200121043AC
:101A30000860FFE701A840784007002807D5FFE7C6
:101A40001D49086840F2004210430860FFE701A802
:101A500000788007002806D5FFE7184908680222A9
:101A600010430860FFE725E001A84078C00738B1BF
:101A7000FFE71149086840F2001290430860FFE751
:101A800001A840784007002807D5FFE70A49086801
:101A900040F2004290430860FFE701A80078800709
:101AA000002806D5FFE70549086802229043086030
:101AB000FFE7FFE702B0704704240140082401401B
:101AC00081B0014668460180018802484843000B06
:101AD00001B07047E40C000083B0029001A80170CF
:101AE000694600200870FFE701AA1078411E1170B6
:101AF00058B1FFE769460A780298431C02930078C0
:101B000042400448805C0870EEE76846007803B005
:101B10007047C0461431000881B0009000982C49ED
:101B20000860FFE72A48006808B1FFE7FAE701B05C
:101B30007047C04686B0059005991C4800681C4A4D
:101B4000B0FBF2F0484304901A48006803901A482A
:101B50000068401C0290FFE7049828B3FFE715488F
:101B60000068019003980199884205D3FFE7039824
:101B70000199401A009006E00398029940180199D3
:101B8000401A0090FFE7009868B1FFE700980499B9
:101B9000884201D3FFE707E000990498401A0490B7
:101BA00001980390FFE7D7E706B0704704000020D4
:101BB00040420F0018E000E014E000E00448006834
:101BC00028B1FFE702490868401E0860FFE7704738
:101BD000E408002081B001466846017000781421B5
:101BE0004143BA4A885801239843885001B070474E
:101BF00081B0014668460170007814214143B34A20
:101C0000885801231843885001B0704781B00146BD
:101C100068460170007814214143AC4A885820235B
:101C20009843885001B07047B0B581B0014668460E
:101C300001700178142213464B43A44C1959012515
:101C4000A9431951017813464B43002119510478D7
:101C500013466343BC4C1951047813466343574CF5
:101C6000195103785A43A24BD150007880000F22BB
:101C70008240644908681043086001B0B0BDC046A6
:101C800070B584B0024603A80090027002910078FB
:101C9000FFF7A0FF009B029800681C7814210A46F9
:101CA0006243464C1051029880681C780A46624391
:101CB0008F4C10510298008A1C780A466243A24C4D
:101CC00010511A7808465043804A80580190019874
:101CD00043F60074A0430190029CE06840F6004582
:101CE0002840656840F2003635404019646943F287
:101CF00000052C40041901982043019001981B789D
:101D0000594388500298007E01280AD1FFE703A8B2
:101D10000078142141436D4A885840231843885065
:101D200009E003A8007814214143684A88584023F9
:101D300098438850FFE70298407E01280AD1FFE7C8
:101D400003A8007814214143604A8858802318432F
:101D5000885009E003A80078142141435B4A885861
:101D6000802398438850FFE70298807E50B9FFE7B0
:101D700003A8007814214143544A885810239843FB
:101D8000885009E003A80078142141434F4A88583D
:101D9000102318438850FFE703A801788C00724A8B
:101DA000A3583F218B43A350029BDB690B40007873
:101DB000810088581843885004B070BD100002405C
:101DC00082B0024601A802700091009B1E210B40C8
:101DD0000078142141433D4A88581843885002B086
:101DE0007047C04682B0024601A802700091009A76
:101DF000007880008240034908681043086002B000
:101E00007047C0460400024086B005AA10700491D5
:101E100003A9002008700290019004980090022805
:101E200008D0FFE70098042816D0FFE7009808289C
:101E300024D035E024480168049A05A803789B0063
:101E40009A40114001910178142048431F4940589D
:101E500002210840029024E01B480168049A05A86A
:101E600003789B009A401140019101781420484367
:101E70001649405804210840029012E012480168B7
:101E8000049A05A803789B009A40114001910178BB
:101E9000142048430D49405808210840029000E0B2
:101EA000FFE7019838B1FFE7029820B1FFE703A9E7
:101EB0000120087003E003A900200870FFE703A8D1
:101EC000007806B07047C04600000240080002409B
:101ED00083B000910246009802A90A70019001980F
:101EE0000A7814215143024A885003B07047C04613
:101EF0001400024081B00090009900200860009911
:101F0000486000990876009988600099C860009937
:101F1000487600990861009988760099486100998F
:101F2000C86101B07047000083B00091024600987C
:101F300002A90A70019001A800880A78142151436F
:101F4000014A885003B070470C00024081B001463E
:101F50006846017000788100034A885801231B04F9
:101F60009843885001B070470008024085B0049043
:101F700003A8017002A90A70049B304A11689943B2
:101F80001160049B2E4A116899431160049B2D4AED
:101F9000116899431160049B2B4A116899431160A1
:101FA0000078019020B1FFE70198012806D00BE0EE
:101FB000049A224908681043086006E0049A204900
:101FC00008681043086000E0FFE702A8007800906E
:101FD00003282FD800998A0001A080188746C046A0
:101FE00000F006B800F00FB800F018B800F021B803
:101FF000049A1449086810430860049A1249086852
:102000009043086017E0049A0E49086890430860FE
:10201000049A0D490868104308600CE0049A0949C5
:10202000086810430860049A07490868104308606C
:1020300001E000E0FFE705B07047C0460004014042
:1020400004040140080401400C04014081B00090E8
:1020500000980E49086001B07047C04682B00190F8
:10206000694600200870094800680199084204D0B8
:10207000FFE769460120087003E069460020087008
:10208000FFE76846007802B07047C046140401407C
:1020900080B582B00190009101A801780020FFF77F
:1020A00033F9019802B080BD82B00190009168467A
:1020B00000880199886202B0704782B00190009157
:1020C000684600880199886102B0704783B0029029
:1020D00001910298016901980840000420B1FFE7CE
:1020E00069460120087003E0694600200870FFE798
:1020F0006846007803B0704787B006900591049257
:1021000003930698006801900698C068009002A9A1
:1021100000200880FFE702A800880F282FD8FFE7DB
:1021200002A8018803A80088C840C00708B3FFE7D9
:1021300002A801884900032213468B400199994364
:102140000191059B1340018849008B400199194377
:1021500001910188490013468B40009999430091F1
:102160000499114000884000814000980843009085
:10217000FFE7FFE70298401C02A90880CBE701981F
:102180000699086000980699C86007B0704700007B
:1021900010B586B0059004A80170039202930078F0
:1021A000C00738B1FFE702A80288059948681043C4
:1021B000486008E00298C2431A48024305994868FB
:1021C00010404860FFE705988068009001A9002052
:1021D0000880FFE701A800880F281ED8FFE701A8A4
:1021E000018802A80088C840C00780B1FFE701A8A5
:1021F0000188012213468B4000999943009103996D
:10220000114000888140009808430090FFE7FFE7F5
:102210000198401C01A90880DCE7009805998860B6
:1022200006B010BD0000FFFF80B584B00020039011
:1022300002A9088029482A4900F0D6FA29480190C5
:1022400029491422FDF776FFFEF752FBFFF760F9EC
:102250003220FFF761FC0198FEF7E2FE0198FEF7DD
:10226000FBFE40F2F410FFF757FCFFE71F48007831
:10227000C00708B1FFE72FE01D480078C00720B174
:10228000FFE71B4900200870F0E71A480078C007F4
:1022900030B1FFE7FEF75AFF164900200870FFE74C
:1022A00015480078C007B0B1FFE714480078C007B0
:1022B00088B1FFE710490020087010490870FEF748
:1022C000B7FA0F480078C00720B1FFE70C4900209B
:1022D0000870CBE7FFE7C9E7FFE7FEE72832000811
:1022E0003A32000816090020143200082A0900209A
:1022F00013090020120900201009002011090020F4
:102300001409002080B584B00A46014603A8019054
:10231000017002A90A7000220092805609780322F7
:102320001140FFF791F9009901984056FFF734F9F1
:1023300004B080BD82B00190009101980099044AD8
:102340001140084303490860BFF34F8F02B0704744
:1023500080FFFF1F08ED00E083B0029001910D495E
:1023600008680090009A41F6006082430092009B4A
:1023700040F2801293430093029B1340009A1A4349
:102380000092019A02400098104300900098086063
:1023900003B070478C10024082B001908C490868ED
:1023A0000090009A0720400782430092019A024061
:1023B0000098104300900098086002B07047C04633
:1023C00081B001466846018000881F220146114005
:1023D00001238B4081097E4A88581843885001B0F8
:1023E0007047C04681B001466846018000881F22C0
:1023F0000146114001238B408109754A8858984352
:10240000885001B07047C04681B0014668460180DF
:1024100000881F220146114001238B4081096C4A2C
:1024200088581843885001B07047C04685B00A46A6
:1024300004A9087003A8027002789207130F0F22F4
:102440009A40D2430292097802789207120F914083
:102450000191007880080090032835D800998A00FF
:1024600001A080188746C04600F006B800F00EB8FC
:1024700000F016B800F01EB8029A1849086810401B
:102480000860019A0868104308601EE0029A124929
:10249000086810400860019A08681043086014E05A
:1024A000029A0C49086810400860019A08681043B5
:1024B00008600AE0029A0649086810400860019A1C
:1024C00008681043086000E0FFE705B07047C046A9
:1024D00014000140100001400C00014008000140C0
:1024E00082B001900948016801980840800720B136
:1024F000FFE769460120087003E069460020087084
:10250000FFE76846007802B07047C0461C000140F3
:1025100081B00090009A18200240034908681043D7
:10252000086001B07047C0460000014080B500F06F
:1025300001F880BD10B584B0002003900290234ABA
:102540001168012319430624A1431160204A116830
:1025500019431160FFF720FFFFE70398401C039029
:102560001B480068022108400290FFE70299002002
:10257000019041B9FFE7039840F20051401A411E13
:1025800088410190FFE70198C0070028E5D1FFE7E7
:102590000F4800688007002802D4FFE7FFE7FEE746
:1025A0000C49009108680860086808600868032200
:1025B0009043086008680860FFE706480068000765
:1025C000800F08B1FFE7F8E704B010BD002002401B
:1025D000001002400810024080B50848006840F230
:1025E000E831B0FBF1F0FEF715FF10B1FFE7FFE7B0
:1025F000FEE70021C843FEF7E9FF80BD040000208C
:1026000081B000900099086880221043086001B0F2
:102610007047000080B588B00790079806905B4926
:1026200088421CD0FFE706981F4988421FD0FFE769
:102630000698554988420AD0FFE7069854498842CF
:102640001ED0FFE706985349884221D028E01A4857
:102650000590FFF7D9FE0598FFF7C4FE21E0154865
:102660000490FFF7D1FE0498FFF7BCFE19E040F696
:1026700010100390FFF7C8FE0398FFF7B3FE10E0B9
:102680000B480290FFF7C0FE0298FFF7ABFE08E090
:1026900006480190FFF7B8FE0198FFF7A3FE00E09F
:1026A000FFE708B080BDC0460020004012090000CE
:1026B000110900000B0900000A09000081B0009018
:1026C0000099086801229043086001B0704781B00A
:1026D00000900099086801221043086001B070471B
:1026E00082B0019000910098008801998862019859
:1026F0002549884205D0FFE701982449884216D130
:10270000FFE70199086870229043086000984288AA
:102710006020024001990868104308600098828890
:10272000102002400199086810430860FFE70098F4
:1027300080680199C862019A116840F200308143B3
:10274000116000998A890240019908681043086065
:1027500001980D4988420AD0FFE701980C49884248
:1027600005D0FFE701980B49884205D1FFE70098A3
:10277000C08901990863FFE7019948690122104364
:10278000486102B07047C046002C01400004004080
:10279000004401400048014083B00290019102983A
:1027A0004068009000997020814300910199014098
:1027B00000980843009000980299486003B0704761
:1027C00081B000900099002008800099488000990D
:1027D0008880009A03499160009988810099C88196
:1027E00001B07047FFFF00000FB410B503A9044B00
:1027F000044A029800F0E8F810BC08BC04B018477E
:1028000091200008000000202021020C01D010219E
:102810001046020A01D010460839020901D01046BC
:10282000091F820801D01046891E420801D0881E67
:102830007047081A704702E008C8121F08C1002A32
:10284000FAD170477047002001E001C1121F002A31
:10285000FBD17047F0B51FB486B00998089A030DF4
:102860000021024314D05148514A1818504305140E
:102870001198012810981AD0281A401C00264D4F94
:102880004D49009601910490002812DA444211E06B
:102890001198012449A3012801D11098C143069839
:1028A000119A84600360C26041600BB0F0BD404289
:1028B000E4E70446210500203F4A001C51410391F2
:1028C000029012E0E00707D032463B46019900989B
:1028D000FDF7FEFC0191009032463B46104619463A
:1028E000FDF7F6FC06460F466410002CEAD104986A
:1028F000039B0028029A0999089806DAFDF7E8FC7C
:10290000019B009AFDF7E4FC05E0FDF70DFE019B3D
:10291000009AFDF709FE04460E460022284BFDF7FB
:102920009BFE03D80020C043014607E00022254B50
:1029300020463146FDF71AFCFDF76EFE102409E033
:10294000002C0ADB0A220023FDF72AFD079B303208
:102950001A55641E02460A43F2D11122641C079BD9
:10296000121B1C19119B012B03D0012308430ED10C
:102970000AE0084304D0112010900020119077E75E
:102980001098151A6D1E0BE01098824202DD00238C
:102990006D1C03E0824201DA00236D1E002BEED095
:1029A000069811998260C16030C07EE701FCFFFF8C
:1029B000104D0000000014400000F03F3000000007
:1029C0000000F0430000E03FFFB597B00646002549
:1029D00018E2252877D100242746FD49049400E019
:1029E0000443761C32780120203A90400842F7D107
:1029F00030782A280ED00222307801463039092951
:102A000016D804990A235943303940181443761CC8
:102A10000490F1E7189802C804911890002904DA8C
:102A20000120400304434842049002200443761CE2
:102A300030782E2814D1042004437078761C2A287C
:102A400009D11898761C80C8189009E00A214F43D4
:102A5000303FC719761C3078014630390929F5D93D
:102A600030786C2810D006DC4C281AD068280ED09C
:102A70006A2817D104E0742813D07A2812D110E004
:102A80000120400504430CE00121090501E0032178
:102A900009050C437178814203D1012000052418F7
:102AA000761C761C3078119066280BD013DC5828E1
:102AB0007DD009DC00287BD04528F6D04628F4D00C
:102AC00047281AD1A5E118E0632835D0642870D0D2
:102AD000652812D19DE170286CD008DC6728F1D000
:102AE00069287BD06E280DD06F2806D1BAE07328F4
:102AF0002ED0752871D0782859D01A9A19999047F4
:102B00006D1C7EE16002400F022809D003280DD021
:102B10000428189801680DD00D60001D189070E110
:102B20001898EA1701680D604A60F6E7189801687E
:102B30000D80F2E70D70F0E718986A46017811727F
:102B4000001D18900020507202A80090012005E09E
:102B5000189802C8189000200091C04361070DD555
:102B6000002101E00199491C0191B94212DA814228
:102B7000F8DB009A515C0029F4D10BE0002101E060
:102B80000199491C01918142FADB019A0099895C03
:102B90000029F5D1019904981A9B471A2146384615
:102BA000199A00F097FA0199401945180BE04FE087
:102BB0002CE113E04EE0009800990078491C009148
:102BC0001A9A199990470198401E0190401CF2D121
:102BD000214638461A9B199A10E137E00A20002155
:102BE000009001916002410F022907D0189A01CA92
:102BF0001892C2179446032908D00AE01898C01DFD
:102C0000C108C90005C91891944607E000B2C2176F
:102C10009446042902D140B2C1178C460022614675
:102C2000944506DA0A460021404291418C462D2106
:102C300002E0210504D52B216A461173012103E02E
:102C4000E10701D02021F7E7029155E00A200AE0D0
:102C5000102008E01020009000210420044301917E
:102C6000082703E008200021019100906002410F35
:102C7000022907D0189A01CA189200229446032903
:102C800008D008E01898C01DC108C90005C91891EE
:102C9000944603E080B2042900D1C0B20021029121
:102CA000210729D51199702906D0009A1021019B7E
:102CB0004A401A4305D00EE040216A4611730121B3
:102CC00008E06146014306D030216A46117311992C
:102CD000517302210291009A0821019B4A401A4334
:102CE0000AD16146014301D1610705D530216A4609
:102CF000117301217F1E02911199582904D035A129
:102D00000E910DA90D910DE037A1F9E76146019BE8
:102D1000009AFDF745FB0E9B8C469B5C0D9A521E5C
:102D20000D92137061460143F0D10D9805A9081A60
:102D300020300190600703D501200004844300E0A7
:102D400001270198874201DD381A00E0002001992F
:102D500000904118029809180498401A0490E00362
:102D600006D421461A9B199A049800F0B3F9451924
:102D7000002706E003A81A9AC05D199990476D1CB8
:102D80007F1C02988742F5DBE0030CD521461A9B95
:102D9000199A049800F09EF9451904E01A9A302017
:102DA000199990476D1C0099481E00900029F5DC88
:102DB00008E00D980D990078491C0D911A9A1999FF
:102DC00090476D1C0199481E01900029F1DC63E1D8
:102DD00009280100303132333435363738396162F1
:102DE00063646566000000003031323334353637B5
:102DF00038394142434445460000000000F05AF98A
:102E00004519761C3078002800D0E2E528461BB032
:102E1000F0BD600700D406271898C01DC108C9007E
:102E200048680A680831C30FDB071891190001D000
:102E30009CA108E0210501D59BA104E0E10701D098
:102E40009AA100E09AA1430011985B0810916528AF
:102E50000CD006DC452809D046281DD0472841D192
:102E600041E0662818D067283CD13CE00021112FB2
:102E700001DB112000E0781C0191009008A911A845
:102E8000FFF7E8FC139905910021119A15927F1C18
:102E900012980197009150E00120C0070390012093
:102EA000019008A9009711A8FFF7D4FC139A149970
:102EB00005920022119B009212981593059A019297
:102EC000002901D0104602E0791C40180190381A00
:102ED00001D5019804E04042401E0090781C01900A
:102EE000C01B029043E0012F00DA01270021112FBF
:102EF00001DD112000E038460191009008A911A8D9
:102F0000FFF7A8FC13990591119A002112981592C8
:102F10000091019721070CD40599B94201DB019971
:102F200000E00191012904DD159A491E515C302908
:102F300006D0B84201DA011D05DA0121029115E03F
:102F40000199491EEDE7002805DC00994118009120
:102F50000199091A03E0019A411C914200DD019197
:102F60000099401A401C02900120C00703902007DE
:102F700006D402990198814202DB0020C0430290EE
:102F800000206946C87707AF012103980337C907B6
:102F9000884224D0022011902B2012900398002800
:102FA0000CDA404203902D20129007E00A2103988A
:102FB000FDF77EFB30317F1E039039701199481E5A
:102FC00011900029F2DC03980028EFD1791E1298A5
:102FD00008703078202108404530BF1E387006A8A0
:102FE000C01BC01D039010980078002800D001205D
:102FF000019941180298C0170918039809180498F4
:10300000401A401E0490E00306D421461A9B199AE8
:10301000049800F05FF8451910980078002803D054
:103020001A9A199990476D1CE00324D521461A9BE2
:10303000199A049800F04EF845191CE000980028F1
:1030400007DB00990598884203DD1598405C1999C3
:1030500001E0199930201A9A904700986D1C401C85
:1030600000900298401E0290002804D11A9A2E2047
:10307000199990476D1C0199481E01900029DDDCCB
:1030800005E038781A9A7F1C199990476D1C0399AE
:10309000481E03900029F4DC21461A9B199A0498D3
:1030A000ACE600002D0000002B0000002000000016
:1030B00000000000F8B5044600251E4617468804A7
:1030C00004D405E039462020B0476D1C641EF9D5B4
:1030D0002846F8BDFFB50446002581B01E46C8034A
:1030E00001D5302700E02027880404D505E03846C4
:1030F0000399B0476D1C641EF9D5284605B0F0BD94
:10310000110D110D0100000010000000000000482A
:1031100000000048005EBCE2613FDD83C29C7E206F
:10312000A3FD1F419DC3217FFCA2401E5F01E3BDA3
:103130003E6082DC237D9FC1421CFEA0E1BF5D0397
:1031400080DE3C62BEE0025CDF81633D7C22C09E8B
:103150001D43A1FF4618FAA427799BC584DA386677
:10316000E5BB5907DB856739BAE406581947A5FB63
:103170007826C49A653BD987045AB8E6A7F91B4557
:10318000C6987A24F8A6441A99C7257B3A6486D84B
:103190005B05E7B98CD2306EEDB3510F4E10F2AC37
:1031A0002F7193CD114FADF3702ECC92D38D6F3123
:1031B000B2EC0E50AFF1134DCE90722C6D33D18F17
:1031C0000C52B0EE326C8ED0530DEFB1F0AE4C120B
:1031D00091CF2D73CA947628ABF517490856B4EAF7
:1031E0006937D58B5709EBB536688AD495CB2977E3
:1031F000F4AA4816E9B7550B88D6346A2B7597C9D7
:103200004A14F6A8742AC896154BA9F7B6E80A54CA
:10321000D7896B350009FF013E00000A0F01050543
:1032200001060090013200014170702056657273F2
:10323000696F6E3A2025730D0A00312E302E320050
:103240003D3D3D3D3D3D3D3D3D3D3D3D3D3D3D3DAE
:103250003D3D3D3D3D3D3D3D3D3D3D3D3D3D3D3D9E
:103260003D3D3D3D3D3D3D0D0A0D0A0057726974DF
:1032700065204661696C6564210D0A0057726974A6
:10328000652053756363657373210D0A0020204E1A
:103290004F5F5553454420202020202020203A20F5
:1032A0002564202831327E31336269742C203262E9
:1032B000697473290D0A002020534354524C5F5205
:1032C00045535F41202020203A20256420283337B1
:1032D0007E34306269742C203462697473290D0A5B
:1032E000002020465553455F4C20202020202020E0
:1032F00020203A2025642028307E336269742C20F7
:103300003462697473290D0A002020534354524CCF
:103310005F5245535F42202020203A202564202818
:1033200034317E34346269742C20346269747329B8
:103330000D0A002020434F415253455F4741494EFB
:10334000322020203A202564202833337E33366211
:1033500069742C203462697473290D0A0020204698
:103360005553455F4D2020202020202020203A204A
:103370002564202832357E32386269742C2034620C
:10338000697473290D0A002020465553455F482073
:1033900020202020202020203A2025642028343698
:1033A0007E34396269742C203462697473290D0A81
:1033B0000020204741494E5F53454C45435420204F
:1033C00020203A202564202832346269742C203170
:1033D000626974290D0A002020534354524C5F49FE
:1033E0004E5445524E414C203A2025642028343515
:1033F0006269742C2031626974290D0A002020430F
:1034000052433820202020202020202020203A2035
:103410002564202835307E35376269742C20386267
:103420006974732C20435243292020202020202A15
:103430002A2A0D0A002020434F415253455F47413D
:10344000494E312020203A202564202832397E330D
:10345000326269742C2034626974732C20307E319E
:10346000352920202020202A2A2A0D0A0020205039
:103470004C532020202020202020202020203A20D3
:1034800025642028347E31316269742C20386269C9
:1034900074732C20307E323535292020202A2A2AA8
:1034A0000D0A00202046494E455F4741494E2020E5
:1034B000202020203A202564202831347E323362B7
:1034C00069742C203130626974732C20307E313065
:1034D000323329202A2A2A0D0A000D0A3D3D3D3D9E
:1034E0003D3D3D2049534C3730305F324120436FE2
:1034F0006E66696775726174696F6E203D3D3D3D12
:103500003D3D3D0D0A005243555F49524333324B16
:10351000204572726F720A005243555F495243341C
:10352000384D204572726F720A0053454747455225
:1035300000525454005465726D696E616C00000055
:103540006035000800000020100000003628000848
:103550007035000810000020200D000046280008EB
:1035600000000000006CDC0201010000000000000F
:04000005080000DD12
:00000001FF
