:020000040800F2
:10000000E04C0020610100080132000803320008C2
:10001000053200080732000809320008000000001D
:100020000000000000000000000000000B3200088B
:100030000D32000800000000770100080F320008B0
:100040007B0100087B0100087B0100087B010008A0
:100050007B0100087B0100087B0100087B01000890
:100060007B0100087B0100087B0100087B01000880
:100070007B0100087B0100087B0100087B01000870
:100080007B0100087B0100087B0100087B01000860
:100090007B0100087B0100087B0100087B01000850
:1000A0007B0100087B0100087B0100087B01000840
:1000B0001D3200087B0100087B0100087B0100085D
:1000C0007B0100087B0100087B0100087B01000820
:1000D0007B0100083D3200087B0100087B0100081D
:1000E0007B0100087B0100087B0100087B01000800
:1000F0007B0100087B0100087B0100087B010008F0
:100100007B0100087B0100087B0100087B010008DF
:100110007B0100087B0100087B0100087B010008CF
:100120007B0100087B0100087B0100087B010008BF
:100130007B0100087B0100087B0100087B010008AF
:100140007B0100087B010008DFF810D013F01AF8DB
:10015000004800479B310008AFF30080E04C0020CE
:100160000648804706480047FEE7FEE7FEE7FEE751
:10017000FEE7FEE7FEE7FEE7FEE7FEE7DB0100083D
:100180004901000840F2596072B6AC490A6912F0A0
:10019000020F01D1401EF9D2A948026822F0007274
:1001A0000260026842F000720260086820F4C060D9
:1001B00040F48060086040F259600A6912F0020F52
:1001C00001D0401EF9D240F259600A6912F0020FC4
:1001D00001D1401EF9D262B670479A4800B5016855
:1001E00041F470010160984B586A40F00400586275
:1001F0005868964908405860186820F4102020F08C
:1002000080701860186820F480201860586820F406
:100210007F0020F0784058604FF4E040D8624010F2
:10022000186300205863186489489860D86940F0C2
:100230008050D8618148006810F4806F08D08048F1
:10024000016821F000710160016841F000710160F6
:10025000DFF800C2DCF8000040F08000CCF80000BD
:10026000DCF8000020F01000CCF80000DCF8000002
:1002700010F4807F05D0DCF8000020F40070CCF88A
:1002800000001968002041F0010119601968401C44
:10029000C1F3400111B9B0F5A06FF7D11868C0F3F0
:1002A0004000002843D0FFF76DFFDCF8000020F08D
:1002B0000300CCF80000DCF8000040F00100CCF8AE
:1002C000000058685860586840F4005058605868FA
:1002D00040F4A0605860586820F47C1020F0006062
:1002E0005860186C20F0030018645868196C40F4CA
:1002F000C01041F0010158601964186840F0807026
:100300001860186810F0007FFBD0586820F00300D8
:100310005860586840F0030058600C20596830EA73
:100320000101FBD14C494FF00060086000BD4C4911
:100330004A480860F6E7DFF810C110B4DCF80400A2
:10034000DCF8241010F00C00C1F30212454B4449B4
:1003500008BF53F8220019D0042808BF424815D01E
:10036000082808BF414811D00C281CBF53F82200B0
:1003700008600DD0DCF804003D4AC0F30310105CA7
:100380000A6822FA00F0086010BC70470860F1E7C4
:10039000DCF80400374A1040DCF8042002F4803313
:1003A000DCF8402010F0006F02F002020CBF0224C3
:1003B0006FF4F77404EB904043B1DCF8043013F4AD
:1003C000003F08D0254B5843086007E0DCF8403078
:1003D00013F0010F07D0254B58430860022A08BFCD
:1003E0004008C7D1D2E7204B58430860F6E740F2F7
:1003F000596072B611490A6912F0020F01D1401E0C
:10040000F9D20F48026822F00072026002680260AE
:10041000086840F4C060086040F259600A6912F050
:10042000020F01D0401EF9D240F259600A6912F061
:10043000020F01D1401EF9D262B670470070004031
:100440002018004088ED00E00010024000C0FFF8D6
:100450000080BF040020024008ED00E000093D00DC
:1004600054000020C03B01080024F40000127A0070
:10047000B03B010800003C082D4940F0FD7040F001
:1004800080600860704710B4C27801784FF00F0C9C
:1004900001242AB3264A126801F1E02102F4E06245
:1004A000C2F5E062120AC2F104032CFA02F290F8DB
:1004B00001C00CFA03F390F802C00CEA02021A43DE
:1004C000120181F80024007800F01F0104FA01F104
:1004D0004009800000F1E020C0F8001110BC704716
:1004E00001F01F0004FA00F04909890001F1E02140
:1004F000C1F8800110BC704721F07F0121F06041FC
:1005000008430C49086070470B4A0029116814BF62
:10051000084321EA0000106070474FF0E0210428F2
:1005200008690CBF40F0040020F004000861704727
:100530000CED00E008ED00E010ED00E03F49002286
:10054000D1F86012B1F1FF3F0CBF3D4B3D4B53F86A
:10055000041B8154521CD2B24FEA112C00F802C085
:10056000521CD2B24FEA114C00F802C0521CD2B257
:10057000090E8154511CCAB2102AE8D370472F4982
:100580000022D1F87012B1F1FF3F0CBF2E4B2F4B60
:1005900053F8041B8154521CD2B24FEA112C00F8BC
:1005A00002C0521CD2B24FEA114C00F802C0521CD9
:1005B000D2B2090E8154511CCAB20C2AE8D370473A
:1005C000234B002253F8041B8154521CD2B24FEA31
:1005D000112C00F802C0521CD2B24FEA114C00F8A4
:1005E00002C0521CD2B2090E8154511CCAB2042A54
:1005F000E8D3704717480068C0B2704715480068D4
:100600004FF47F6101EA1011C0F3035008437047B3
:10061000104A0029516814BF084321EA00005060C5
:1006200070470C48006800F4702070470948006863
:10063000012101EB107080037047000000F0FF1FE4
:10064000C0F7FF1F60F2FF1FF0F7FF1F70F2FF1FE0
:10065000FCF7FF1F002004E001684FF6FE72114016
:1006600001600021016041608160C1604A4A4B49DC
:10067000904208BF0F2028D0494A904208BFF0207E
:1006800023D0484A904208BF4FF470601DD0464ABC
:10069000904208BF4FF4704017D0444A904208BFC0
:1006A0004FF4702011D0424A904208BF4FF47000BE
:1006B0000BD0404A904208BF4FF0706005D03E4AD0
:1006C00090420CBF4FF0704070474860704710B4C4
:1006D0000268D1F820C08B686FF30E1243EA0C0356
:1006E000D1E904C44CEA040C43EA0C03D1F818C065
:1006F00043EA0C03D1F81CC043EA0C03D1F824C030
:1007000043EA0C03D1F828C043EA0C031A43026001
:10071000CA6842600A6882604968C16010BC70475C
:100720000021016041608160C160016141618161BE
:10073000C16101624162816270470029016812BF94
:1007400041F001014FF6FE72114001607047002A2E
:10075000026814BF114322EA010101607047416041
:100760007047406880B27047024609680020114215
:1007700018BF012070474860704702460968002092
:10078000114218BF0120704748607047002B08BF16
:100790000020106170470000080002400000024085
:1007A0001C00024030000240440002405800024059
:1007B0006C0002408000024094000240FE4A116832
:1007C00001F0F801084310607047FB490A6822F005
:1007D00010020A600A68104308607047F648016812
:1007E00041F0400101607047F3490A6822F080023D
:1007F0000A600A68104308607047EF490A6822F4EB
:1008000000720A600A68104308607047EA490020D5
:10081000096811F4807F18BF01207047E6490A6813
:1008200022F400620A600A68104308607047E249D7
:100830000020096811F4806F18BF01207047DE495D
:100840000A6943F6FF631A400A610A6910430861A6
:10085000704781B0D94A00200090116811F0020F52
:100860001CBF01B07047116841F0010111601168AF
:10087000009BC1F340015B1C009311B9B3F5A06F5D
:10088000F5D11168C1F34001002908BF012001B072
:100890007047C948CA494160CA4941607047C64863
:1008A000016941F0800101617047C3490620CA68AF
:1008B00012F0010F1CBF01207047CA6812F0040F2C
:1008C0001CBF03207047CA6812F0080F1CBF042029
:1008D0007047CA6812F0100F1CBF05207047C96826
:1008E00011F0400F18BF0720704700B50346FFF70F
:1008F000DCFFB1491EE0CA68062012F0010F18BFE4
:10090000012016D1CA6812F0040F18BF032010D1BD
:10091000CA6812F0080F18BF04200AD1CA6812F082
:10092000100F18BF052004D1CA6812F0400F18BF7D
:1009300007205B1E012804D0002B18BF00BD0A2031
:1009400000BD002BD7D1FAE79B49CA681043C860A5
:10095000704710B5DFF860C20446DCF80C0040F0C8
:100960007C00CCF80C004FF43020FFF7BEFF0628C7
:1009700018BF10BDDCF8100040F00200CCF81000E9
:10098000CCF81440DCF8100040F04000CCF8100027
:100990004FF43020FFF7A9FFDCF8101043F6FD728A
:1009A0001140CCF8101010BDDFF80CC200B5DCF817
:1009B0000C0040F07C00CCF80C004FF43020FFF726
:1009C00094FF062818BF00BDDCF8100040F00400BA
:1009D000CCF81000DCF8100040F04000CCF810001B
:1009E0004FF43020FFF781FFDCF8101043F6FB7264
:1009F0001140CCF8101000BD6F490020C96911F0FA
:100A0000020F18BF0120704700206B49C96911F01F
:100A1000004F18BF0120704710B5DFF8ACC1FFF7D9
:100A2000F3FF00281CBF082010BD634CE06910F0E4
:100A3000020F18BF4FF47F0CE06840F07C00E060CC
:100A40004FF43020FFF751FF062818BF10BD5C4857
:100A5000A0605C48A060206940F02000206120690F
:100A600040F0400020614FF43020FFF73EFF43F696
:100A7000DF71062806D00A281ABF2269114010BD6E
:100A8000216110BDE06840F07C00E0602069084012
:100A90002061206940F0100020614C48C0F800C07F
:100AA0004FF40050FFF721FF0A2808BF10BD21694D
:100AB00043F6EF721140E3E72DE9FF4F0D46DDE904
:100AC0000D4CDDE90F6BDDE91387DDE911A9FFF7B7
:100AD0009BFF00281EBF082004B0BDE8F08FF04344
:100AE00045EA020141EA0302009944EA0C4541EA61
:100AF00002464FF47F0101EA0023C2B201EA10214D
:100B0000C0F3074041EA000C4AEA090040EA080045
:100B10003843294F4BEA0048294842EA0304B860A9
:100B20002848B860F86840F07C00F8604FF4302046
:100B3000FFF7DBFE06281CBF04B0BDE8F08F386964
:100B400040F020003861386940F0400038614FF4CF
:100B50003020FFF7CAFE43F6DF7106280AD00A28C4
:100B600019BF3A69114004B0BDE8F08F396104B093
:100B7000BDE8F08FF86840F07C00F8603869084004
:100B80003861386940F010003861104806604FF451
:100B90000050FFF7AAFE06283FD1F86840F07C001D
:100BA000F8600B4805604FF40050FFF79EFE0628E2
:100BB00033D1F8680EE0000000200240001002402F
:100BC00023016745AB89EFCDA500FFFF00F8FF1FAC
:100BD00004F8FF1F40F07C00F860FE4804604FF40A
:100BE0000050FFF782FE062817D1F86840F07C001D
:100BF000F860F948C0F800C04FF40050FFF775FEE8
:100C000006280AD1F86840F07C00F860F348C0F884
:100C100000804FF40050FFF768FE0A2804BF04B0BC
:100C2000BDE8F08F396943F6EF7211409EE730B5A9
:100C30000D46844610F0030F1CBF092030BDE84C60
:100C4000E06840F07C00E0604FF40050FFF74DFE9C
:100C5000062818BF30BD206940F001002061CCF8A3
:100C600000504FF40050FFF740FE216943F6FE723A
:100C70001140216130BD30B50C460546FFF7C4FE7A
:100C800000281CBF082030BDDFF854C3DCF80C007E
:100C900040F07C00CCF80C004FF40050FFF725FE2C
:100CA000062818BF30BDCF48CCF80800CE48CCF895
:100CB0000800DCF8100040F01000CCF810002C60A8
:100CC0004FF40050FFF711FE0A2808BF30BDDCF8D2
:100CD000101043F6EF721140CCF8101030BDF0B593
:100CE0000246FFF791FE00281CBF0820F0BDD0434C
:100CF000BB4FC5B2C0F30724C0F3074C060EF8681B
:100D000040F07C00F8604FF40050FFF7EEFD06283D
:100D100018BFF0BDB349B960B349B960396941F052
:100D200010013961FF2D08BFFF2C07D0A94845EA03
:100D3000044101604FF40050FFF7D7FDBCF1FF0FF5
:100D400008BFFF2E09D0062807D1A3494CEA064068
:100D500008604FF40050FFF7C8FD0A2808BFF0BD37
:100D6000396943F6EF7211403961F0BD30B59C4CE2
:100D70000546E06900F01C004FEA803CFFF744FEA6
:100D800000281CBF082030BDE06840F07C00E06017
:100D90004FF43020FFF7A9FD062818BF30BD914859
:100DA000A0609148A060206940F020002061206987
:100DB00040F0400020614FF43020FFF796FD43F6ED
:100DC000DF71062806D00A281ABF2269114030BDFB
:100DD000216130BDE06840F07C00E060206908409F
:100DE0002061206940F0100020618048002D14BF70
:100DF0000CF47F014CF0A50101604FF43020FFF7A7
:100E000074FD0A2808BF30BD216943F6EF72114016
:100E1000DEE710B5724CE06900F01C004FEA803C40
:100E2000E06910F0020F08BF4CF0A50CFFF7ECFDD5
:100E300000281CBF082010BDE06840F07C00E06086
:100E40004FF43020FFF751FD062818BF10BD65484C
:100E5000A0606548A060206940F020002061206902
:100E600040F0400020614FF43020FFF73EFD43F694
:100E7000DF71062806D00A281ABF2269114010BD6A
:100E8000216110BDE06840F07C00E060206908400E
:100E90002061206940F0100020615448C0F800C073
:100EA0004FF43020FFF721FD06280AD1E06840F01A
:100EB0007C00E06049494E4808604FF43020FFF75D
:100EC00014FD0A2808BF10BD216943F6EF721140D6
:100ED000D6E7F0B515460E460746DFF818C1FFF70E
:100EE00093FD00281CBF0820F0BD3D4CE06910F0C8
:100EF000020F18BFDFF800C13A48A0603A48A0606E
:100F0000E06840F07C00E0604FF43020FFF7EDFC3B
:100F1000062818BFF0BD206940F02000206120693C
:100F200040F0400020614FF43020FFF7DEFC43F634
:100F3000DF71062806D00A281ABF22691140F0BDC9
:100F40002161F0BDE06840F07C00E060206908406D
:100F50002061206940F01000206147EA0600234923
:100F600028434CEA004008604FF40050FFF7BDFCF6
:100F70000A2808BFF0BD216943F6EF721140DFE790
:100F80002DE9F0431E46174688468146DFF86CC0BF
:100F90006FF47F05FFF738FD00281CBF0820BDE86F
:100FA000F0830F4CE06910F0020F18BFDFF850C05B
:100FB0000C48A0600C48A060E06840F07C00E06055
:100FC0004FF43020FFF791FC062818BFBDE8F083EE
:100FD000206917E008F8FF1F0CF8FF1F10F8FF1F2B
:100FE0000020024023016745AB89EFCD00F8FF1FC9
:100FF000CC33FFFFA500F0FF0000F0FFA500FFFFCE
:101000000000FFFF40F020002061206940F0400018
:1010100020614FF43020FFF768FC43F6DF710628AB
:1010200008D00A281ABF22691140BDE8F083216167
:10103000BDE8F083E06840F07C00E0602069084093
:101040002061206940F0100020612A48C0F800C0EB
:101050004FF40050FFF749FC06280FD1E06840F03C
:101060007C00E06049EA080038432349304345EA00
:10107000004008604FF40050FFF737FC0A2808BF13
:10108000BDE8F083216943F6EF721140CFE71B48BA
:10109000C069800870471948006A704717490020E6
:1010A000096811F0200F18BF012070470020134974
:1010B000096943F6FF62114218BF012070470029F9
:1010C0000E4A116914BF084321EA000010617047FD
:1010D00001460020094A012904D0D2680A4208BF0B
:1010E000704704E0D16911F0010F08BF704701207B
:1010F0007047000000F8FF1F10F8FF1F002002409B
:101100002DE9F05F044600254FF6FF76FE4FDFF82D
:10111000FC83DFF8FC93B84206D10121042000F0E3
:10112000D6FE0021042007E044450AD10121082011
:1011300000F0CDFE0021082000F0C9FE4FF00F0B9B
:1011400016E04C4506D10121102000F0C0FE002120
:101150001020F1E7A4F18040B0F58A3018BFBDE857
:10116000F09F0121202000F0B2FE00212020E3E7C3
:10117000012000FA05FA1AEA06005DD025F0030105
:1011800001F1804202F580325168AB074FEA137CCF
:101190000BFA0CF303EA010EBC4208BF002107D092
:1011A000444508BF012103D04C450CBF0221032157
:1011B00001FA0CF171451FD1DFF858C3DCF80010BB
:1011C0008143CCF800100CF1040CDCF800108143D2
:1011D000CCF800100CF1040CDCF800108143CCF8C2
:1011E00000100CF1040CDCF8001021EA0000CCF82F
:1011F000000050689843506021686A0003209040C6
:101200008143216015F0080F07D0616A6A07D20E8A
:101210000BFA02F21143616206E0216A6A07D20EFC
:101220000BFA02F211432162616821EA0A0161604E
:10123000E16821EA0000E0606D1C36FA05F097D104
:10124000BDE8F09F10B50121084600F040FE0021E6
:10125000BDE81040012000F03ABE0A880023002AB1
:1012600008BF70472DE9F04FDFF8A8920F2709F16A
:10127000040A0AF1040B4FF003080BF1040EB1F855
:1012800000C001229A401CEA020F73D08C684FEA1A
:10129000430C022C18BF122C03D0002C18BF032CB7
:1012A00021D113F0080F0FD0456A4FEA43744FEA7B
:1012B000D46407FA04F625EA0605CE6806FA04F4B3
:1012C00044EA050444620EE0056A4FEA43744FEABB
:1012D000D46407FA04F625EA0605CE6806FA04F493
:1012E00044EA0504046206680C7A04F00F0508FA63
:1012F0000CF426EA040605FA0CF545EA0605056035
:10130000C6680D7926EA040605F0030505FA0CF512
:1013100045EA0605C5608D6815F0030F18BF032D5B
:101320000BD0C66A8D7826EA040405F0030505FA99
:101330000CFC4CEA040CC0F82CC0D0F808C0CC78E7
:101340002CEA020C04F0010404FA03F444EA0C0C45
:10135000C0F808C091F804C0BCF1020F03D0BCF182
:10136000010F08D00DE0D0F828C04CEA020CC0F8FC
:1013700028C006E051E0D0F818C04CEA020CC0F8D2
:1013800018C0D1F808C0BCF1010F18BFBCF1020FA2
:1013900005D0BCF1110F18BFBCF1120F0AD144687F
:1013A000CCF3001C24EA02040CFA03FC4CEA040C03
:1013B000C0F804C08C6814F0805F2ED0D9F800C04B
:1013C00014F4803F2CEA020C18BF42EA0C0CC9F856
:1013D00000C0DAF800C08C682CEA020C14F4003F5C
:1013E00018BF42EA0C0CCAF800C0DBF800C08C68D9
:1013F0002CEA020C14F4801F18BF42EA0C0CCBF844
:1014000000C0DEF800C08C682CEA020C14F4001F47
:1014100018BF42EA0C0CCEF800C00A8803F10103A1
:10142000DA407FF42CAFBDE8F08F4FF6FF710180FA
:101430000021C1700F22C0E9021201718170704752
:101440000246002012690A4218BF01207047006955
:1014500080B270470246002052690A4218BF01203C
:101460007047406980B27047816170478161704701
:1014700081627047002A14BF8161816270474161B7
:10148000704741F48032C261C161C261C169C06903
:101490007047002808BF1C4807D0012808BF1B4818
:1014A00003D002280CBF1A481B4811F0080F4FEA5E
:1014B00041714FEAD1634FF00F0101FA03F102FAD3
:1014C00003F205D0436A23EA0101114341627047E8
:1014D000036A23EA0101114301627047002808BF33
:1014E000094807D0012808BF084803D002280CBFCC
:1014F0000748094811F0080F4FEA41714FEAD161DE
:101500004FF00F020AE0000000080140000C01400B
:1015100000100140000401400014014002FA01F1F2
:1015200006D0426A22EA010141F00301416270479C
:10153000026A22EA010141F0030101627047214978
:10154000C861704721F0030202F1804202F5803247
:1015500053688907090F4FF0030C0CFA01FC23EACA
:101560000C03536053688840184350607047164B13
:101570001A684FF0010C0CFA00FC22EA0C0201FA86
:1015800000F01043186070470F4A09280ED0082851
:1015900018BF70471068102920F480701ABF20F01F
:1015A0000F00084340F480701060704710681129E4
:1015B00020F400701ABF20F0F00040EA011040F45F
:1015C0000070F1E70000204200000140A0F18041DE
:1015D00010B5B1F5A8414FF0010109D0880500F020
:1015E0007FFCBDE8104000214FF4800000F078BC83
:1015F0004FF4001000F074FCBDE8104000214FF4DF
:10160000001000F06DBC70B50446808886B00D46B1
:1016100020F03F06684600F0C5FBB2490298B0FBD7
:10162000F1F189B246EA0102A280228822F0010289
:101630002280AD4B2A689A421DD85200B0FBF2F0CE
:1016400080B2042838BF0420491C2184A08320884C
:1016500040F0010020802088A9886A8920F00A00D3
:1016600020F48060114308432080A8892989084319
:10167000208106B070BDEB88A3F53F4CBCF1FF0C98
:1016800019D002EBC20303EB0212B0FBF2F080B2FE
:1016900040F480400205120D08BF40F0010040F404
:1016A00000404FF4967251434FF47A72B1FBF2F15D
:1016B000491C2184CAE702EB4202B0FBF2F080B27F
:1016C000E8E741F288310160002181804BF6FF722A
:1016D000C280018141814FF480418181704700299E
:1016E000018814BF41F0010121F001010180704720
:1016F0000029818814BF41F4006121F400618180D8
:1017000070470029818814BF41F4805121F4805131
:10171000818070470029018814BF41F4807121F451
:101720008071018070470029018814BF41F4007165
:1017300021F40071018070470029018814BF41F431
:10174000806121F4806101807047828901F0FE018F
:1017500022F0FE021143818170470029818914BF64
:1017600041F0010121F001018181704700290188C8
:1017700014BF41F0400121F0400101807047002A70
:10178000828814BF114322EA0101818070470182DF
:101790007047008AC0B27047002A14BF41F00101AF
:1017A00001F0FE010182704781B00844009000887A
:1017B00001B070470029018814BF41F40041C1F312
:1017C0000E0101807047B1F5006F01880CBF41F434
:1017D000006121F4006101807047B1F5005F01886C
:1017E0000CBF41F4005121F40051018070470029E1
:1017F000018814BF41F4805121F480510180704769
:10180000B1F5006F01880CBF41F4006121F4006163
:10181000018070470029018814BF41F0200121F0A8
:10182000200101807047008B000A70470029018861
:1018300014BF41F0100121F0100101807047002910
:1018400001880CBF41F0800121F0800101807047C8
:10185000B1F5804F818B14BF21F4804141F4804168
:1018600081837047838A0022008B43EA004020F086
:101870007F4031EA000008BF012210467047818A8C
:10188000008B41EA004020F07F40704782B0024662
:10189000002000920A0F21F07F41019208BF090C3D
:1018A000009A14BF14321832009212680A4218BF0C
:1018B000012002B07047C9438182704783880022AB
:1018C0004FF4E06C0CEA114C808A03EA0C0321F01F
:1018D0007F4108421CBF002B012210467047C943BC
:1018E0008182704740420F00A08601000D490860C8
:1018F00070470C49486070470A4988607047094939
:101900004AF6AA200860704706494CF6CC400860A9
:101910007047044A01460020D2680A4218BF0120DD
:101920007047000000300040FA48416A41F004016D
:1019300041624168F84A114041600168F74A11402C
:101940000160016821F480210160416821F47F0178
:1019500021F0006141604FF4E041C1624910016330
:10196000002141630164EE4981607047E9490A68DA
:1019700022F480320A600A6822F480220A60B0F5FC
:10198000803F04BF086840F4803006D0B0F5802F57
:1019900006BF086840F4A020704708607047002226
:1019A0004109DC4B012908BF196803D002290CBF8B
:1019B000196A596A00F01F00012303FA00F0084277
:1019C00018BF01221046704708B500200090312052
:1019D000FFF7E5FF0099491C0091B1F5005F01D0C8
:1019E0000028F4D03120FFF7DAFF002818BF0120CB
:1019F00008BDC8490A6822F001020A60012818BF20
:101A00007047086840F001000860704708B5002082
:101A100000902120FFF7C3FF0099491C0091B1F508
:101A2000A06F01D00028F4D02120FFF7B8FF0028D4
:101A300018BF012008BDB74A116821F07C0141EAB6
:101A4000800010607047B74908607047B14A536A18
:101A500023F070035362536A19435162002804BF94
:101A6000506A20F0040005D0042806BF506A40F0F8
:101A7000040070475062704708B500200090632052
:101A8000FFF78DFF0099491C0091B1F5A06F01D0BF
:101A90000028F4D06320FFF782FF002818BF012040
:101AA00008BD9C4A516A21F4FF0141EAC0305062EE
:101AB00070479D490860704710B4964CD4F804C034
:101AC000236C2CF47C1C2CF0006C23F00303002806
:101AD00011BF01284CEA0101104318431EBF0843FF
:101AE00040EA0C0143EA02006160206410BC7047C8
:101AF0008C4908667047874A516821F00301084302
:101B0000506070478348406800F00C007047814A7D
:101B1000516821F0F0010843506070477D4A5168D8
:101B200021F4E0610843506070477A4A516821F41B
:101B3000605141EAC00050607047764A00299168C0
:101B400014BF41EA002021EA0020906070477549E7
:101B500041F8D80F4008486070476E4AD16A21F0BA
:101B600000510843D06270476A4AD16A21F0F851A7
:101B70000843D0627047674BDA6A22F47C32104324
:101B80000843D8627047634BDA6A002922F4F8727E
:101B900042EA000008BF20F48070D86270475D4AB6
:101BA000D16A21F00F010843D0627047594B1A6B7C
:101BB00022F43E3210430843186370475549002809
:101BC000086B14BF40F4802020F480200863704725
:101BD000504B1A6B22F4007210431863186B0029E3
:101BE00014BF40F0800020F080001863704749491E
:101BF0000A6B22F480720A630A6B10430863704711
:101C0000444A0029516B14BF084321EA0000506385
:101C10007047404A0029516B14BF41EA001021EA85
:101C20000010506370473B4A0029D16914BF084334
:101C300021EA0000D06170473649CA6942F08052FB
:101C4000CA613A4A136843F4807313604A6B22F006
:101C500007024A634A6B1043486370472D48406B44
:101C600000F0070070472B494A6B22F018024A63C4
:101C70004A6B1043486370472648406B00F01800D9
:101C80007047244A0029516C14BF084321EA000020
:101C9000506470471F4A0029516C14BF084321EA61
:101CA0000000506470471B494A6C104348647047F9
:101CB0001F4A1168B0F5007F6FF308012CBF40F296
:101CC000FF10C0F30800084310607047DFF844C0FD
:101CD00010B4DCF81C30002243F08053CCF81C30E8
:101CE000124B1C6844F480741C60DCF8203000281F
:101CF00023F00D0304BFCCF8203040F2FF702BD04E
:101D0000012817D0042804BF43F00400CCF82000B9
:101D100010BC70470010024000C0FFF8FEFFF6FE46
:101D20000080BF040000424288044242007000402C
:101D30000818004043F00100CCF82000884B1A68D6
:101D4000B1F5007F6FF308022CBF40F2FF10C1F322
:101D5000080010431860DBE7521C8242FCD3D7E72F
:101D600080490860704780490A6A22F440720A621A
:101D70000A6A1043086270477B48006A00F44070AA
:101D800070477A490860704777490A6A22F0200252
:101D90000A620A6A1043086270477348006A00F0DA
:101DA00020007047DFF8C0C130B4DCF80410704A7E
:101DB0001140DCF80420DCF8243002F48032C3F354
:101DC000021311F0006F0CBF02246FF4F77404EBE0
:101DD00091413AB1DCF8042012F4003F18BF654A83
:101DE00007D007E0DCF8402012F0010F08BF624A7C
:101DF00000D0624A5143DCF8402012F0020F18BFB5
:101E00004908DCF804205E4C12F00C020BD0042AC6
:101E100008BF594A09D0082A08BF584A05D00C2AD9
:101E200008BF016002D054F823200260DCF80420CF
:101E30000F23544D03EA12120368AA5C23FA02F23C
:101E40004260DCF80430072404EA1323EB5C22FA36
:101E500003F38360DCF8043004EAD323EB5C22FA5A
:101E600003F3C360DCF82C3005F1100403F00F031A
:101E7000E35CB2FBF3F24261DCF82C201F2303EA9F
:101E8000121202F00F0204F1100333F81220B1FB1A
:101E9000F2F1016130BC7047334A0029516914BF27
:101EA000084321EA0000506170472F4A00299169D8
:101EB00014BF084321EA0000906170472A4A0029B4
:101EC000916A14BF084321EA000090627047264AD5
:101ED0000029D16814BF084321EA0000D060704790
:101EE000214A0029116914BF084321EA000010614A
:101EF00070472549086070472449C86470472449E1
:101F00000860704718490020096A11F0100F18BFC7
:101F100001207047144A516821F070410843506015
:101F20007047114A516821F0E06141EA0060506059
:101F300070470D48416A41F080714162416A21F069
:101F4000807141627047084A0146002092680A4247
:101F500018BF0120704704498A68104388607047A1
:101F60000818004080044242001002403C044242F3
:101F700000003C0800093D000024F40000127A0033
:101F80001C3C0108DC3B0108400442420000424284
:101F90000C04424210B5A0F18041B1F5963131D028
:101FA000B0F1804F43D0A0F18041B1F5806134D0D1
:101FB000A0F18041B1F5006143D0A0F18041B1F5BD
:101FC000406148D0A0F18041B1F580514DD0A0F1E1
:101FD0008041B1F5A05152D0A0F18041B1F59A31C4
:101FE00057D0A0F18041B1F5705118BF10BD01214B
:101FF0004802FFF775FFBDE8104000214FF4007064
:10200000FFF76EBF0121C802FFF761FFBDE8104076
:1020100000214FF40060FFF75ABF01210220FFF7B3
:102020005FFF0021BDE810400220FFF759BF0121EA
:102030000846FFF755FF0021BDE810400120FFF7DB
:102040004FBF01210420FFF74BFF0021BDE81040E6
:102050000420FFF745BF01210820FFF741FF0021C1
:10206000BDE810400820FFF73BBF01211020FFF71B
:1020700037FF0021BDE810401020FFF731BF0121DC
:102080002020FFF72DFF0021BDE810402020FFF7A2
:1020900027BF01214803FFF71AFFBDE810400021C8
:1020A0004FF40050FFF713BF2DE9F0010268F54C23
:1020B000F54FDFF8D8C3F64EF64DF74BA04218BFE8
:1020C000604509D0B0F1804F18BFB04204D09842AB
:1020D0001CBFB842A84205D1B1F8028022F07002BC
:1020E00048EA0202A0F18048B8F580581CBFA0F170
:1020F0008048B8F5A05805D0B1F8068022F44072A7
:1021000048EA020202608A8882850A880285A04223
:1021100012BF60450A7A02864FF00102828202688D
:10212000A04218BF604509D0B0F1804F18BFB0423F
:1021300004D098421CBFB842A84206D14F7A002F63
:1021400014BF42F4006222F40062A84214D18F7AD4
:10215000002F14BF42F4805222F48052CF7A002F15
:1021600014BF42F4005222F400520F7B002F14BF20
:1021700042F4804222F48042A04218BF604508D059
:10218000B0F1804F18BFB04203D0984218BFA842A8
:1021900008D191F80DC0BCF1000F14BF42F4004209
:1021A00022F4004202604268B0F1804F18BF9842AA
:1021B00006D1897B002914BF42F4807222F4807218
:1021C0004260BDE8F001704710B4026A22F00102DB
:1021D0000262026A4368B0F818C00C882CF0730CD5
:1021E00044EA0C0C0C8922F0020222434C88224360
:1021F000A0F18044B4F596341CBFA0F18044B4F53E
:102200009A340DD14C8922F0080222438C8822F0A6
:10221000040222438C8923F440732343CC89234353
:102220004360A0F818C0C9888186026210BC70475C
:1022300030B4026A22F010020262036A4268B0F807
:1022400018C00C884FF6FF752CF4E64C05EA042400
:1022500044EA0C0C0C8923F0200343EA04134C8855
:1022600043EA0413A0F18044B4F596341CBFA0F1F6
:102270008044B4F59A3411D14C8923F0800343EAA9
:1022800004138C8823F0400343EA04138C8922F45E
:10229000406242EA8402CC8942EA84024260A0F8A9
:1022A00018C0C9880187036230BC704710B4026A45
:1022B00022F480720262026A4368B0F81CC00C8883
:1022C0002CF0730C44EA0C0C0C8922F4007242EAE4
:1022D00004224C8842EA0422A0F18044B4F59634EA
:1022E0001CBFA0F18044B4F59A3411D14C8922F47A
:1022F000006242EA04228C8822F4806242EA0422CC
:102300008C8923F4405343EA0413CC8943EA041331
:102310004360A0F81CC0C9888187026210BC704766
:1023200030B4026A22F480520262D0F820C04268BF
:10233000838B0C884FF6FF7523F4E64305EA0424EB
:1023400023430C892CF4005C4CEA043C4C884CEA96
:10235000043CA0F18044B4F596341CBFA0F1804445
:10236000B4F59A3404D18C8922F4804242EA841272
:1023700042608383C988A0F84010C0F820C030BCF8
:10238000704710B4026A22F480320262036A426823
:10239000B0F854C00C882CF0700C44EA0C0C0C897A
:1023A00023F4003343EA04434C8843EA0443A0F196
:1023B0008044B4F596341CBFA0F18044B4F59A343F
:1023C00004D18C8922F4803242EA04224260A0F8CF
:1023D00054C0C988A0F85810036210BC704730B4CC
:1023E000026A22F480120262D0F820C04268B0F87B
:1023F00054300C884FF6FF7523F4E04305EA0424BB
:1024000023430C892CF4001C4CEA045C4C884CEAF5
:10241000045CA0F18044B4F596341CBFA0F1804464
:10242000B4F59A3404D18C8922F4802242EA8422C1
:102430004260A0F85430C988A0F85C10C0F820C0F1
:1024400030BC7047828B22F440628283828B4FF6CD
:10245000FF7303EA0121114381837047828B22F0CD
:102460000C028283828B114381837047028B22F49A
:1024700040620283028B4FF6FF7303EA012111438E
:1024800001837047002C0140000C004000340140E3
:1024900000040040003C00400008004070B4D0F848
:1024A00020C02CF0100CC0F820C0058BD0F820C044
:1024B0004FF6FF7625F4734506EA03332B4306EA0D
:1024C00002221A430C01A0F18043B3F596331CBFDE
:1024D000A0F18043B3F59A331AD0B0F1804F1CBFFE
:1024E000A0F18043B3F5806312D0A0F18043B3F52F
:1024F00000631CBFA0F18043B3F5406308D0A0F196
:102500008043B3F570531CBF2CF0A003194302D1D4
:102510002CF02001214341F010010283016270BCC4
:102520007047028B22F00C020283028B114301835D
:1025300070472DE9F05F0D4604460888DFF8F4C3C4
:10254000FD4FDFF8F883DFF8F893DFF8F8E3498808
:10255000AA882B89002841D04FF6FF7604284AD05C
:102560000828206A56D020F480502062B4F81CB0AD
:10257000206A2BF4734B06EA022242EA0B0206EAB7
:1025800003331A434FEA013A644518BFBC4211D0E5
:10259000B4F1804F18BF44450CD04C4518BF74456A
:1025A00008D0A4F18043B3F570531CBF20F4005051
:1025B000084303D120F4005040EA0A0040F4805060
:1025C000A2832062A879A18B21F44061A183A18B11
:1025D00006EA00200843A083BDE8F09F204600F0F3
:1025E000EBFBE888218B21F00C012183218B084330
:1025F0002083BDE8F09F2046FFF750FFA879218B8C
:1026000021F440612183218B06EA002008432083C6
:10261000BDE8F09F20F480702062B4F81CB0206AFE
:1026200006EA03131A432BF0F30B4FEA012A42EA9E
:102630000B02644518BFBC4211D0B4F1804F18BFE3
:1026400044450CD04C4518BF744508D0A4F18043D4
:10265000B3F570531CBF20F42060084303D120F46D
:10266000007040EA0A0040F48070A2832062E8888B
:10267000A18B21F00C01A183A18B0843A083BDE8AD
:10268000F09F2DE9F0410C464988012605464FF0A0
:102690000008002908BF4FF00208A288012A08BFDD
:1026A00002262088238900284FF6FF7728461BD072
:1026B000FFF7F4FEA079298B21F440612983298B4F
:1026C00007EA0020084328832389324641462846EA
:1026D00000F072FBE088298B21F00C012983298B03
:1026E00008432883BDE8F08100F066FBE088298B71
:1026F00021F00C012983298B084328832389324642
:1027000041462846FFF7CAFEA079298B21F4406193
:102710002983298B07EA002008432883BDE8F0813C
:102720000A884B88B1F806C01A438B8843EA0C0329
:102730001A430B891A434B891A438B891A43A0F811
:10274000442002688B7B002B14BF22F4806242F489
:102750008062CB7B002B14BF42F4803222F48032A3
:10276000097C002914BF42F4003122F400310160D9
:1027700070474FF6FF71818000210180C180418048
:10278000017241728172C17201734173817370472A
:102790000021018041808180C1800181418181814E
:1027A000C181704700210180418001228280C18067
:1027B000018170470021018041808180C1800181B9
:1027C0004181818170470029016814BF41F00101F6
:1027D00021F00101016070470029B0F8441014BFD6
:1027E00041F40041C1F30E01A0F844107047002AE3
:1027F000828914BF114322EA0101818170478182DD
:1028000070471143A0F848107047002A828914BF0E
:10281000114322EA010181817047018921F00701FA
:1028200001817047028922F07002114301817047D3
:10283000028922F0700211430181018941F00701F0
:102840000181704770B594460D46602904464FF0EB
:10285000010261460BD000F0AFFA208920F0700031
:1028600028432081208940F00700208170BDFFF7B8
:1028700015FEF2E710B4B0F808C04FF6FF7404EA92
:1028800003231A430CF0FF0C114341EA0C010181B0
:1028900010BC704710B4B0F808C04FF6FF7404EADB
:1028A00003231A430CF0FF0C114341EA0C01018190
:1028B000018941F07701018110BC704710B4B0F874
:1028C00008C04FF6FF7404EA03231A430CF0FF0C10
:1028D000114341EA0C010181018941F480410181E8
:1028E00010BC7047018582827047026822F0700236
:1028F00011430160704730B40589B0F818C0046A0C
:1029000025F0070529432CF0030C2CF4407C40F201
:1029100001154CEA050C4FF6FF7505EA031324F088
:1029200022041A4322430181A0F818C0026230BC7D
:1029300070470000002C01400034014000040040BA
:1029400000080040000C0040028B22F0700211438E
:1029500001837047028B4FF6FF7322F4E04203EAD3
:102960000121114301837047828B22F070021143D1
:1029700081837047828B4FF6FF7322F4E04203EAB3
:102980000121114381837047B0F8542022F0700276
:102990001143A0F854107047B0F854204FF6FF735D
:1029A00022F4E04203EA01211143A0F854107047D9
:1029B0000029016814BF41F0800121F0800101600D
:1029C00070470029416814BF41F0040121F004015F
:1029D000416070470029416814BF41F0080121F0AF
:1029E0000801416070470029416814BF41F00101AE
:1029F00021F0010141607047028B22F0080211436F
:102A000001837047028B4FF6FF7322F4006203EAE2
:102A10000121114301837047828B22F00802114388
:102A200081837047828B4FF6FF7322F4006203EAC2
:102A30000121114381837047B0F8542022F008022D
:102A40001143A0F854107047B0F854204FF6FF73AC
:102A500022F4006203EA01211143A0F854107047E8
:102A6000028B22F00402114301837047028B4FF660
:102A7000FF7322F4806203EA01211143018370474E
:102A8000828B22F00402114381837047828B4FF6C0
:102A9000FF7322F4806203EA0121114381837047AE
:102AA000B0F8542022F004021143A0F854107047EB
:102AB000B0F854204FF6FF7322F4806203EA01213C
:102AC0001143A0F854107047028B22F0800211438A
:102AD00001837047028B4FF6FF73C2F30E0203EAC5
:102AE0000121114301837047828B22F08002114340
:102AF00081837047828B4FF6FF73C2F30E0203EAA5
:102B00000121114381837047B0F8542022F08002E4
:102B10001143A0F854107047B0F854204FF6FF73DB
:102B2000C2F30E0203EA01211143A0F854107047CA
:102B3000026A22F00202114301627047026A22F027
:102B40000802114301627047026A22F0200242EA41
:102B5000011101627047026A22F0800242EA01110B
:102B600001627047026A22F4007242EA01210162A6
:102B70007047026A22F4006242EA01210162704752
:102B8000026A22F4005242EA013101627047026A8D
:102B900022F4003242EA014101627047026A22F4E3
:102BA000001242EA01510162704701238B40D0F8C4
:102BB00020C09BB22CEA03030362036A02FA01F10C
:102BC00019430162704704238B40D0F820C09BB2A8
:102BD0002CEA03030362036A02FA01F1194301625A
:102BE000704710B44FF0010C046A00F118030CFA9E
:102BF00001FC6FEA0C0C1FFA8CFC04EA0C0CC0F808
:102C000020C0002918BF082912D0A1F10400C0F388
:102C10004E001844016821F4E041016001684FF65C
:102C2000FF7303EA022241EA0201016010BC70470F
:102C300003EB5100016821F070010160016841EA75
:102C40000201016010BC70470029016814BF41F007
:102C5000020121F00201016070470029016814BFE0
:102C600021F0020141F00201016070470029016872
:102C700014BF41F0040121F00401016070470029F4
:102C8000416814BF41F0800121F08001416070472C
:102C9000026822F008020260026811430160704776
:102CA000426822F0700242604268114341607047FE
:102CB000028922F0070202810289114301817047D3
:102CC000028922F08002028102891143018170474A
:102CD000818470478185704781867047018770477E
:102CE00081877047A0F840107047A0F858107047CF
:102CF000A0F85C107047026822F44072026002681B
:102D0000114301607047808E7047008F7047808F3D
:102D10007047B0F840007047B0F858007047B0F8FE
:102D20005C007047808C7047008D7047808D7047C5
:102D30000022A0F18043B3F596331CBFA0F180437D
:102D4000B3F59A3316D0B0F1804F1CBFA0F1804389
:102D5000B3F5806312D0A0F18043B3F500631FBFC9
:102D6000A0F18043B3F54063A0F18043B3F5705305
:102D700004D007E0006A084203D103E0006A084279
:102D800000D00122104670470246002012690A4214
:102D900018BF01207047C9430161704703690022D1
:102DA00080890B4200EA01001CBF00280122104666
:102DB0007047C9430161704730B4D0F820C02CF08F
:102DC000010CC0F820C0048BD0F820C04FF6FF756E
:102DD00005EA03131A4324F0F3042243A0F18043CD
:102DE000B3F596331CBFA0F18043B3F59A331ED0E0
:102DF000B0F1804F1CBFA0F18043B3F5806316D0C3
:102E0000A0F18043B3F500631FBFA0F18043B3F589
:102E10004063A0F18043B3F5705308D02CF00A034F
:102E2000194341F001010283016230BC70472CF06C
:102E30000203194341F00101F5E7000010B5A0F1CC
:102E40008041B1F59C311FD0A0F18041B1F588419E
:102E500025D0A0F18041B1F590412BD0A0F1804167
:102E6000B1F5A83131D0A0F18041B1F5AA3118BF38
:102E700010BD01218804FFF72AF8BDE810400021A9
:102E80004FF48020FFF723B801218803FFF71FF8D4
:102E9000BDE8104000214FF48040FFF718B8012131
:102EA0004804FFF71DF8BDE8104000214FF4003042
:102EB000FFF716B801218804FFF712F8BDE81040AB
:102EC00000214FF48020FFF70BB801214804FEF7E2
:102ED000FEFFBDE8104000214FF40030FEF7F7BFC1
:102EE00030B50446008A87B00D464CF6FF710840A5
:102EF000E98808432082A0894EF6F3110840A9888A
:102F00002A8911436A8910430843A081A08A4FF699
:102F1000FF410840A9890843A0826846FEF742FFA6
:102F2000A4F18040B0F59C301CBFA4F18041B1F504
:102F3000A83106D0A4F18041B1F5AA3118BF02989A
:102F400000D10398874A00EBC00101EB001029680B
:102F50006FF0180C8900B0FBF1F0A2FB00314909B9
:102F600009010B0903FB0CF300EB8300322303EB95
:102F70000010A2FB0020C0F343100843208107B0DB
:102F800030BD4FF41651016000218180C180018164
:102F90000C22428181817047028A4FF2FF031A405E
:102FA0000B88B1F802C043EA0C03B1F804C0C98829
:102FB0004CEA01011943114301827047002101804D
:102FC00041808180C18070470029818914BF41F40C
:102FD000005121F4005181817047C1F3421301F087
:102FE0001F014FF0010C0CFA01F1012B08BF0C304E
:102FF00003D0022B0CBF10301430002A026814BF1B
:10300000114322EA010101607047002A828A14BF3D
:10301000114322EA010181827047028A22F00F02E5
:103020000282028A114301827047828922F400627F
:10303000828182891143818170470029818914BF6F
:1030400041F0020121F0020181817047028A22F0E1
:1030500020020282028A1143018270470029018AFC
:1030600014BF41F4804121F4804101827047C1F3D3
:103070000801818070478088C0F30800704781890B
:1030800041F0010181817047028BD2B20283028B31
:1030900042EA012101837047028B02F47F420283DE
:1030A000028B1143018370470029818A14BF41F0CC
:1030B000200121F02001818270470029818A14BFFC
:1030C00041F0100121F01001818270470029818AAE
:1030D00014BF41F0080121F0080181827047828A03
:1030E00022F004028282828A114381827047002981
:1030F000818A14BF41F0020121F0020181827047F0
:103100000246002012880A4218BF01207047C943B6
:103110000180704710B401F01F020124C1F3421373
:1031200004FA02F24FF0000C012B04BF83891A400D
:1031300004D0022B0CBF038A838A1A40090A008834
:1031400004FA01F10840002A1CBF00284FF0010CCE
:10315000604610BC7047090A012202FA01F1C94316
:10316000018070471F85EB5110B562B600F0A0FDDD
:1031700000F0ACFE00F04DFE01F044FB01F030F930
:103180004FF4E13001F01AF8002010F099F801F046
:103190007EFBBDE8104000F023BC174915480860CD
:1031A00062B600F085FD00F091FE00F032FE01F005
:1031B00029FB01F015F94FF4E13000F0FFFF00208A
:1031C00010F07EF801F063FB00F00AFC00F04BFC0D
:1031D00000F0B8FCFAE770B5084D0446C1B22846C5
:1031E000FFF745FF80212846FFF78AFF0028F9D026
:1031F000204670BD0070000808ED00E00038014076
:103200007047FEE7FEE7FEE7FEE77047704710B540
:1032100000F06EFDBDE8104000F08CB810B5012143
:103220008807FFF7BBFD002808BF10BD01218807F4
:10323000FFF7BFFDBDE8104000F07BB810B50A4CA9
:1032400040F224412046FFF765FF002808BF10BD6B
:103250002046FFF710FF01F048F8014603480068D8
:10326000BDE8104000F087B8003801401802002087
:103270000268521C02608A42DCBF002070470021B5
:1032800001600120704702688A42C4BF0120704774
:10329000511C01600020704770B53748016841F04B
:1032A00080710160354C00206060206840F00100B2
:1032B000206065680A2000F015FD6468304E3078A3
:1032C00050B123222F4930A010F004F830A010F0A4
:1032D00001F831A00FF0FEFF307850B12FA00FF0B1
:1032E000F9FF2F4801682FA00FF0F4FF2AA00FF07C
:1032F000F1FF3078002808BF70BD28A00FF0EAFF6A
:10330000601B00EE100ADFED2D0AB8EE400A20EE39
:10331000200A10EE100A0FF0EFFD41EC100B28A070
:1033200053EC102B0FF0D6FFBDE870401AA00FF041
:10333000D1BF704710B500200FF062FF002808BF12
:1033400010BD264900240868401C08600A28C4BF34
:103350000C60FEF7D4FA00F0D5F800F09FFA20498F
:103360000868401C0860C828D8BF10BD0C60BDE8C4
:10337000104000F065BA7047FCED00E0001000E07E
:1033800058000020383C01082573282564293A009C
:1033900043707554733A00000D0A000020200000AD
:1033A0005400002053797374656D436F7265436CEC
:1033B0006F636B203D202564000000000000803C0E
:1033C00044656C61795F6D732831303029207469F0
:1033D0006D653A2025667573000000005C000020D2
:1033E00060000020F94810B401228285DFF8E0C3B4
:1033F000DCF80430591CCCF804100021FA2B21DB36
:10340000DCF80430B3F5FA7F24DBDCF8044040F24A
:10341000EE239C4216DBDCF80430B3F57A7F19DB2F
:10342000DCF8043040F2E244A3420BDBDCF8043069
:1034300040F2DC54A3420DDBDCF8043040F2D664E9
:10344000A34202DAC285018606E0DCF80430B3F557
:10345000FA6F05DAC185028610BC4FF0FF30704765
:10346000C1850186CCF8041010BC00207047DFF83D
:1034700060C3DCF80830581CCCF808000122D3499E
:103480000020FA2B03DA0A86CA8588857047DCF8A3
:103490000830B3F5FA7F03DA0886C8858A85704755
:1034A00010B4DCF8083040F2EE24A34204DA0A86B5
:1034B000CA85888510BC7047DCF80830B3F57A7F80
:1034C00004DA0886C8858A8510BC7047DCF80830A5
:1034D00040F2E244A342EADBDCF8083040F2DC547C
:1034E000A342EEDBDCF8083040F2D6649C42DEDC1E
:1034F000DCF80830B3F5FA6FA8BFCCF80800E0DBC1
:1035000010BC70472DE9F04F83B04FF0FF350095A8
:103510000020019500F0A1FD002000F035FE002400
:10352000AB4F012808BF00940AD0022808BF0194BD
:1035300006D0032808BF3C6102D0042808BF3D61C3
:103540003869002806BFF868401C0020F860387809
:10355000DFF880829D4D02264FF0010A4FF00309EB
:1035600040B1012814D0022821D0032808BF002030
:103570004FD05EE0A5F82E90A5F83090A5F82C90DD
:10358000F86841F658318842C8BF87F800A050E07B
:103590002E86EC85AE85D8F8000004803869B0F13D
:1035A000FF3F46D13E7047F23050786141E0F86805
:1035B000B0F5FA6F06DC7869401E786102D0009899
:1035C00030B10CE087F8009003200FF079FE06E0A0
:1035D000D8F800000188491C01F003010180D8F8E7
:1035E00000000088002808BF2E8610D0012808BFE0
:1035F0002C860AD0022808BF2E8606D0032808BFD2
:103600002C8604D015E0AE8513E0EC85FBE7EE8553
:10361000F9E7C1B205EB41018A8D022A08BFA1F882
:103620002CA0401C0328F4DB3869B0F1FF3F08BF31
:103630003C7038780028B87809D0002818BFBC70D2
:103640007878002804BF03B0BDE8F08FEDE00423D4
:10365000DFF884B105286CD2DFE800F00313315C99
:103660006200A5F82E90A5F83090A5F82C90386946
:1036700000285ED1F868B0F5FA6FC8BF87F802A0DD
:1036800057E02E86EE85A5F82CA03869B0F1FF3FF3
:103690004FD1298D0020BBF80420914204D32A8DFC
:1036A0004E4989888A4201D94FF0FF30B0F1FF3F7F
:1036B0002ED0288DD8F800100881BE7039E02E86F3
:1036C000EC85AC85009810BB298D0020BBF8042048
:1036D000914204D32A8D414989888A4201D94FF009
:1036E000FF30B0F1FF3F13D087F80290D8F8000008
:1036F00001892A8D914284BF0189C180298D94BF9F
:10370000C1800181A0F802A003200FF0D9FD10E0D4
:10371000BB700EE0FFF766FE002808BFBC7008E033
:10372000FFF7A5FE0098002802BFBC7003B0BDE8FB
:10373000F08FB8780028787805D0002804BF03B04F
:10374000BDE8F08F71E088B1012849D002286FD020
:1037500003281CBF03B0BDE8F08FFFF788FE009878
:1037600000281CBF03B0BDE8F08F5EE0A5F82E90E6
:10377000A5F83090A5F82C900098C8B101980028C1
:103780001CBF03B0BDE8F08FEC852C86AC85298D7D
:103790000020BBF80420914204D32A8D0F49898868
:1037A0008A4201D94FF0FF30B0F1FF3F08D030E03E
:1037B00087F801A04FF49670B86103B0BDE8F08FB0
:1037C00087F8019003B0BDE8F08F000000000020F2
:1037D00064000020A8010020540100200001002006
:1037E000EC852C86AC85B869401EB8611DD0009868
:1037F0000028E7D1298DBBF80420914204D32A8DFB
:103800000E4989888A4201D94FF0FF30B0F1FF3F5D
:10381000D6D07E70298DD8F800008180448003B016
:103820000320BDE8F04F0FF04BBD7C70CAE7FFE707
:10383000FFF7D8FD0028F8D0C4E700000001002001
:1038400010B503200FF0DCFC002808BF10BD00F00D
:103850009EFA0948007850B10E22084908A00FF0DE
:1038600039FD09A00FF036FD0BA00FF033FDBDE8C8
:10387000104003200FF0D0BC58000020403C01084D
:103880002573282564293A00464C4153485F526508
:1038900067577269746500000D0A00002DE9F04752
:1038A0004B4C206800884B4D00274FF00108002842
:1038B00008BF85F801800DD0012808BF6F700CD0BB
:1038C000022808BF6F7005D0032808BF85F8018063
:1038D00003D003E085F8028000E0AF703E4EF08D2B
:1038E00003281CBFF08D6870308E03281CBF308EFB
:1038F000A8704FF4FA70DFF8DC90C9F808000220D5
:103900000FF07EFC28B102202870C820C9F80800FA
:1039100011E0B08D03281CBFB08D28700BD120683A
:10392000018800291CBF008802284FF0010017D031
:103930000FF066FC2870687802281CBFA87802285F
:1039400013D02878022818BFC9F804700DD0234E70
:103950000024285DD0B1012813D002281AD032E00B
:103960000FF04EFC80F00100E4E7D9F80400D9F82C
:103970000810401C90FBF1F201FB1200C9F8040092
:10398000E5E756F82400012818D11CE056F8240079
:1039900060B918E0D9F80800D9F8041000EBD0702D
:1039A000B1EB600F56F8240006DA60B1E0B20FF018
:1039B0003FFC46F8247006E0012804D0E0B20FF086
:1039C00043FC46F82480641C032CC2D3BDE8F08776
:1039D000A801002080000020000000206C020020D0
:1039E00010B5404C42F6482282B060685221115412
:1039F0006A4640F20F110BF0D4FB6A464FF488710F
:103A000060680BF0CEFB01AA40F20F1160680BF06A
:103A10000AFC606800F0F6FFE060606800F0C4FF38
:103A2000E0603149606801F096F9E0600321606868
:103A300000F0ECFFE0600121606801F081F9E060D6
:103A400047F23051606800F071FFE060606801F09B
:103A50003EF8E060002804BF02B010BD014623A07C
:103A60000FF038FCFEE710B51E490C46606801F007
:103A70008BF8E060012000F035F9E06800282ED1D5
:103A8000207800282BD0D4E9010101F083F8E06010
:103A9000206900281CBF21A00FF01CFC2069A16830
:103AA00000EB800001EB8000B0F9181021A00FF0AE
:103AB00011FC22A00FF00EFC206900EB8001A06831
:103AC00000EB8100008B608060881D490885E068FC
:103AD00028B9606801F055F8E06000F0CDFE0020E4
:103AE00010BD00008C0000204C2D0020564C3533BA
:103AF0004C585F53746172744D6561737572656D76
:103B0000656E74206661696C65643A206572726FD7
:103B100072203D202564200A000000000A20202099
:103B20002020202020202020202020202020202095
:103B300020200000443D2535646D6D000A00000022
:103B40000000002070B557480068018800291BBF9D
:103B500001880229012500250188DFF84CC1534C5A
:103B600029B1012918BF022937D003296AD1418818
:103B7000002921681FD0002904BF0289C08811D004
:103B8000018932225143890A3229B8BF3221028980
:103B9000521AC18832235943890A3229B8BF3221C7
:103BA000C0880844BCF828109142C4BFBCF8281053
:103BB000884244DD30E0002908BF808808D0818831
:103BC00032225143890A3229B8BF32218088084401
:103BD000BCF8281081421FDB31E0418801B3018924
:103BE00032225143C288890A32235A432368920AF7
:103BF000002B3DD03229B8BF322103895B1A322A0B
:103C0000B8BF3222C088801ABCF828109942C4BFBD
:103C1000BCF82810884212DD01200FF0FDFA11E0F7
:103C20008188322251432268890AE2B13229B8BF21
:103C300032218088401ABCF828108142ECDB012038
:103C40000FF03EFB01200FF0DBFA206002200FF0A6
:103C5000D7FA00281EBF4FF0FF30206070BD2068EB
:103C600075B170B115E03229B4BF64214900E0E7B5
:103C700003893229B4BF64214900C088401AC3E7D0
:103C800038B100200FF0F8FABDE8704000200FF0C6
:103C90000BBB00200FF0E4FABDE8704000200FF0ED
:103CA000F7BA0000A801002000000020A0000020BA
:103CB00016484FF47A710068B0FBF1F0401EB0F185
:103CC000807F0ED24FF0E02148611148F02280F849
:103CD000142D00228A6107220A61102180F8141D28
:103CE0007047FEE70B49486048680028FCD17047E0
:103CF0000848416811B14168491E41600168491C8A
:103D000001607047034800687047000054000020BD
:103D10000FE000E0A400002010B50446FCF7B9FD58
:103D20007C20FCF711FE4FF0006000EBC420FCF794
:103D300010FE7C20FCF708FEBDE81040FCF7AFBD8C
:103D40002DE9F04117460E460546FCF7A2FD284630
:103D5000FCF7FFFD062803D057480FF0BBFAFBE73E
:103D60007C20FCF7F1FD0024002F0CD956F824101C
:103D70002846FCF75CFF7C202D1DFCF7E5FD601C50
:103D800084B2A742F2D8BDE8F041FCF788BD2DE926
:103D9000F04172B6FCF77DFD7C20FCF7D5FD474D68
:103DA0002846FCF7D6FD7C20FCF7CEFDFCF777FD1E
:103DB000FCF76FFD7C20FCF7C7FD4148FCF7C9FD0F
:103DC0007C20FCF7C1FDFCF76AFD3E4915270E6813
:103DD000FCF75FFD2846FCF7BCFD062803D03648FB
:103DE0000FF078FAFBE77C20FCF7AEFD00242846B4
:103DF00056F82410FCF71BFF7C202D1DFCF7A4FDBA
:103E0000601C84B2BC42F2D3FCF749FD62B6BDE847
:103E1000F08170B42B4B0024284A19684FF0150C20
:103E2000204652F8205041F82050401C6045F8D3FD
:103E3000DFF894C00020ACF82800ACF82A00032179
:103E4000ACF82E10ACF83010ACF82C10ACF83200F6
:103E50001968024631F81050DE6836F81060B54235
:103E600006D331F810509E6836F81060B54205D977
:103E70005A6832F8102021F810200122401C052831
:103E8000E8DB002A02BF002C70BC7047BCF832008F
:103E900040F00800ACF8320070BC704709490020BF
:103EA00005230A68D1F804C03CF810C022F810C0FD
:103EB000401C9842F6DB6AE74C3C010800400008D1
:103EC00000480008A8010020000000202DE9F04370
:103ED00085B06846FDF7A9FA0125AE4E00208DF8A1
:103EE00004500446A6F11207A6F10408029056F801
:103EF00024000121FDF7D9FF37F81400ADF80000C8
:103F000058F824006946FDF7A8F9641CEFD0A24ECA
:103F10000024A6F11E07A6F1040856F8240001218A
:103F2000FDF7C3FF37F81400ADF8000058F824007F
:103F30006946FDF792F9641CEFD0984E0024A6F173
:103F40002A07A6F1040856F824000121FDF7ADFF69
:103F500037F81400ADF8000058F824006946FDF762
:103F60007CF9641CEFD00226ADF800508DF8046097
:103F700069468B48FDF771F9DFF8288202958DF8C4
:103F80000450A8F11805002405F1140758F824007E
:103F90000121FDF78AFF35F81400ADF8000057F84D
:103FA00024006946FDF759F929883868FDF760FA59
:103FB000641CEBD0DFF8F0918DF80460A9F12408BF
:103FC000002408F1200659F824000121FDF76DFFB7
:103FD00038F81400ADF8000056F824006946FDF7E3
:103FE0003CF9B8F800103068FDF742FA641CEAD0DA
:103FF0006E4E0024A6F11408A6F10C0956F8240010
:104000000121FDF752FF38F81400ADF8000059F80F
:1040100024006946FDF721F929883868FDF728FA58
:10402000641C032CEAD32020614CADF800006946E3
:104030002046FDF712F920212046FDF719FAE11478
:10404000ADF8001069462046FDF707F9E114204657
:10405000FDF70AFA05B0BDE8F0832DE9F05F554D94
:104060000446A5F10A012A5D01F10E0000264FF079
:10407000040A4FF003094FF0020BA0F1100800F101
:104080002807072A28BFBDE8F09FDFE802F00412E6
:104090001E3B5163700031F8141050F82400FDF7F6
:1040A000CFF900280CBF0120BDE8F09F2855BDE8DE
:1040B000F09F31F8141050F82400FDF7C1F90028E2
:1040C00008BF05F804B00BD04EE031F8141050F8DA
:1040D0002400FDF7B5F9002818BF05F8049003D0B7
:1040E00027F81460BDE8F09F37F81400B0F57A7F28
:1040F00084BF08F804900620D8D8401C27F8140084
:10410000BDE8F09F31F8141050F82400FDF798F93D
:10411000002804BF05F804A0BDE8F09F37F814009C
:10412000B0F5C87F84BF012008F80400E5D91BE082
:1041300031F8141050F82400FDF782F900281CBF54
:1041400005F80490BDE8F09F08F804B00520285554
:10415000BDE8F09F31F8141050F82400FDF770F915
:10416000002808BFBDE8F09F2E55BDE8F09F31F84C
:10417000141050F82400FDF763F9002818BF08F860
:1041800004A0F1D1BDE8F09F0B4A115C0023135449
:1041900008467047CC010020DC010020EC01002023
:1041A000000C0140D4010020E4010020080200209E
:1041B00000080140C4010020B80100202DE9F041B1
:1041C000012190B00846FDF767FE01210420FDF7AC
:1041D0006CFE01218803FDF768FE6846FDF725F9AE
:1041E0004FF40070ADF8000002200424CDE9020471
:1041F000724E01258DF8045069463046FDF72DF8C2
:104200002102ADF800108DF8045069463046039441
:10421000FDF723F86A4E3046FCF71EFA6846FCF7B5
:104220007FFA6948674DCDE90050102002900920BF
:104230000024CDE903048020CDE905044FF440506B
:10424000CDE908400794694630460A94FCF73FFAE6
:10425000DFF878810123324641461846FCF796FA8A
:104260005B4F3846FCF7F8F95A480095CDE9010450
:1042700040F20540039069463846FCF728FA0123CE
:104280003A4641460220FCF781FA0CA8FEF779FE77
:104290004FF4E1300C90ADF83440ADF83840ADF853
:1042A0003640ADF83C400C20ADF83A002C1F0CA96C
:1042B0002046FEF715FE0122C0212046FEF7A5FE8E
:1042C00001213046FCF739FA01213846FCF735FA6E
:1042D00001212046FEF778FE012240F224412046CB
:1042E000FEF77BFE10B0BDE8F0812DE9F0413A49C0
:1042F000374F01F108020868C0F10100086052F868
:104300002040C0F1010052F8200048603846FCF718
:1043100028FA40F20541081A85B200213846FCF718
:104320000CFA2A4E4FF400303146FCF724FA40F2E2
:1043300005413846FCF713FA746601213846FCF74C
:10434000FCF92846BDE8F0812DE9F0410E00054654
:104350004FF0000414BF214FBDE8F081295D3846BD
:10436000FEF785FE80213846FEF7CAFE0028F9D008
:10437000641CB442F2D3BDE8F0812DE9F041104F46
:104380000E46054600213846FCF7D7F90F4C4FF48E
:1043900000502146FCF7EFF92565B1B23846FCF72D
:1043A000DEF901213846FCF7C8F921464FF40050E8
:1043B000FCF7DAF90028F8D0BDE8F08100080140E8
:1043C0004400024004380140240200200000024062
:1043D00058000240D02E0020140200200038014076
:1043E00070B5012188B04805FDF71DFC01210420AE
:1043F000FDF75BFD01210846FDF757FD6846FDF717
:1044000014F812200290302500240720ADF8005047
:1044100003908DF803408DF804406946B348FCF7DB
:104420001CFFB34E3046FDF7D1F8ADF814404BF603
:10443000FF71ADF8161031150801ADF81C00ADF88C
:104440001850AC48ADF81A10049004A93046FDF796
:10445000DAF801213046FDF742F908B070BD2DE9C8
:10446000F047A34F0E46054690464FF420444FF4C4
:1044700000313846FDF70AFA78B1641E06D29EA0D4
:104480000EF028FF4FF0FF30BDE8F0874FF4003109
:104490003846FDF7FBF90028EFD101213846FDF73A
:1044A00039F9DFF86C924FF4204449463846FDF75D
:1044B000D9F970B9641E06D296A00EF00BFF4FF02A
:1044C000FF30BDE8F08749463846FDF7CBF90028B4
:1044D000F0D0002229463846FDF75EF9934D4FF49F
:1044E000204429463846FDF7BDF970B9641E06D24E
:1044F0008FA00EF0EFFE4FF0FF30BDE8F0872946A9
:104500003846FDF7AFF90028F0D0A8F10105B8F161
:10451000000FC8BFDFF830821EDD16F8011B3846D9
:10452000FDF735F94FF4204441463846FDF79AF936
:1045300070B9641E06D285A00EF0CCFE4FF0FF309D
:10454000BDE8F08741463846FDF78CF90028F0D0E9
:10455000281EA5F10105E0DC824D4FF420442946D8
:104560003846FDF77FF970B9641E06D27EA00EF0C2
:10457000B1FE4FF0FF30BDE8F08729463846FDF721
:1045800071F90028F0D001213846FDF7CCF84FF43E
:1045900020444FF400313846FDF778F978B1641EB5
:1045A00006D278A00EF096FE4FF0FF30BDE8F087FF
:1045B0004FF400313846FDF769F90028EFD10020AB
:1045C000BDE8F0872DE9F047DFF824810E46074665
:1045D00015464FF420444FF400314046FDF756F99C
:1045E00078B1641E06D26DA00EF074FE4FF0FF305D
:1045F000BDE8F0874FF400314046FDF747F9002849
:10460000EFD101214046FDF797F801214046FDF723
:1046100081F8DFF8FC904FF4204449464046FDF70E
:1046200021F970B9641E06D262A00EF053FE4FF05D
:10463000FF30BDE8F08749464046FDF713F90028F2
:10464000F0D03946012247464046FDF7A5F8DFF88D
:104650007C814FF4204441463846FDF703F970B998
:10466000641E06D25AA00EF035FE4FF0FF30BDE8B2
:10467000F08741463846FDF7F5F80028F0D0002DC8
:10468000C8BFDFF8648129DD012D0BD00121384638
:10469000FDF752F84FF4204441463846FDF7F6F84E
:1046A00028B113E000213846FDF746F8F2E7641E12
:1046B00006D24EA00EF00EFE4FF0FF30BDE8F087A0
:1046C00041463846FDF7E2F80028F0D03846FDF7BD
:1046D00060F86D1E06F8010B002DD5DC012138466F
:1046E000FDF721F80020BDE8F08700000008014038
:1046F00000540040801A060073656E64204D4153DB
:104700005445525F4255535920310D0A00000000B4
:104710000100030073656E64204D41535445525FA0
:104720004D4F444520320D0A000000008200070072
:1047300073656E64204D41535445525F54584D4F3C
:10474000444520330D0A00008000070073656E6445
:10475000204D41535445525F53454E44494E4720E6
:10476000340D0A008400070073656E64204D4153C8
:104770005445525F53454E44454420342E310D0A72
:104780000000000073656E64204D41535445525F34
:104790004255535920360D0A0000000072656376B9
:1047A000204D41535445525F4255535920310D0A13
:1047B0000000000072656376204D41535445525FFE
:1047C0004D4F444520320D0A000000000200030056
:1047D00072656376204D41535445525F52584D4F98
:1047E000444520330D0A0000040000107265637612
:1047F000204D41535445525F425954454620340D93
:104800000A00000010B584B04FF4A060FDF786F9EF
:1048100001210846FDF707FA1C208DF8000000244E
:104820008DF8014001208DF802008DF803006846E4
:10483000FBF729FE6846FDF79CFFC820ADF8040091
:104840001F20ADF80000ADF80640ADF80240694603
:104850004FF08040FDF728FC01222F219007FEF742
:1048600041F8012211469007FDF7C1FF0121880799
:10487000FDF7A9FF04B010BD11490868401C08608D
:10488000012898BF704700200860FDF738B810B5C0
:1048900001210807FDF7C7F901210802FBF7B8FE5F
:1048A00045F25550FDF722F80620FDF722F8762054
:1048B000FDF722F8FDF723F8BDE81040FDF724B816
:1048C000300200200121017102214171002181711A
:1048D00040F6761202600846704790F8CC03002339
:1048E0004FF0010C81F800C00009107018467047A5
:1048F00090F8CB330B7090F8CC03012300224B705F
:10490000000988701046704710B582B00C466B469F
:1049100002227E210AF0FAFADDE90012C4E900124F
:1049200002B010BD4A0801210AF0FABB70B5054675
:10493000F948F84E84B00C46814288BF6FF00300FE
:1049400005D802AB6A4601A9284602F0A5FC95F8F5
:10495000CB33062240F2A461AA2B02BF95F8CA33DA
:10496000EB2BEE4E8C4208D9A4F2A46102910028F0
:104970001CBF04B070BDB14203D904B06FF0030096
:1049800070BDB1FBF2F3DDE900212846029302F08D
:1049900018F900281CBF04B070BD0299296142F6C5
:1049A00044214C5104B070BD10B50446012102F001
:1049B000ACFA4FF47A720221204600F0FFFDD0B924
:1049C00048F235212046FFF7B1FFA0B94FF47A42F3
:1049D0009111B2FBF1F1204601F57A7102F0DEF897
:1049E00048B904F5E05000218163C16301640221EC
:1049F000204603F0BAFC2021E1704FF42952022135
:104A0000115510BD4FF4FA710BF00CB8012918BF05
:104A1000022904D003291CBF6FF00300704770B552
:104A2000054690F8CB0384B00C46AA2804BF95F83D
:104A3000CA03EB2805D1012C02BF6FF0030004B0BC
:104A400070BD6B4601AA02A928466E6902F024FCDB
:104A500000281CBF04B070BD32462146284600F035
:104A6000ADFD00281CBF04B070BD4FF42950445563
:104A7000DDE901212846009B02F0A3F8002804BFCD
:104A80000099296104B070BD024602F50052002071
:104A900092F8402A0A70704710B584B00C46002185
:104AA000009101910291216001AB6A4602A902F0D6
:104AB000F3FB00281CBF04B010BD019A02EB4201B9
:104AC00040F2A46202EB4101216004B010BDF0B5D8
:104AD00083B00446002501F0B5FF0021FF200B46FE
:104AE00004EB410202F50052A2F8C830621802F548
:104AF0000052491C82F8D000C9B282F8D43004298F
:104B0000EED342F2D800002D0355E6782CD1402E8A
:104B100024D100930193029301AB6A4602A9204677
:104B200002F0BAFB30B9019840F2A46100EB4000FA
:104B300001EB40054FF47A77B5FBF7F5694620465F
:104B400002F09AFB00988101B1FBF7F1401A291D90
:104B50000090884238BF6FF0030505D30622314626
:104B6000204602F09CFC054603B02846F0BD70B517
:104B7000044602F0E9FD0546204601F0E8FF28461C
:104B800070BDC17803F0EEBB0BF02BB84FF4FA61A7
:104B90000BF041B870B504460E4641F23840251876
:104BA000FF225C2130460EF070F82A460221204692
:104BB00003F041F9324629462046BDE8704000F036
:104BC0002EBD04F07ABA84460020A1F50043863B4E
:104BD0000BD0B1F5004F02D3604603F0EABD0B29BC
:104BE0003EBF4F4B43F8212070476FF003007047E2
:104BF00003460020B1F5004F02D3184601F02ABB4E
:104C00000B2924BF6FF003007047454B53F8211068
:104C10001160704770B5064642A088B000680690E3
:104C20004FF4295006F14804855D07A9304600F08D
:104C300040FF18B929463046FFF7E8FE10F11D0F76
:104C40001CBF08B070BD6B460622282130460AF012
:104C50005DF900281CBF08B070BD022306AA14210C
:104C600030460AF01BFA00281CBF08B070BD9DF842
:104C70001800E0719DF81900207204AD06232A4641
:104C80000D2130460AF00AFA00281CBF08B070BD9A
:104C90002978217069786170A978A170E978E1704C
:104CA000297921716979617108B070BD70B50646C6
:104CB000C9B1012922D0022936D003291CBF6FF0C7
:104CC000030070BD04F074F90446304604F07FF927
:104CD0000546304604F08AF90246200004BF5FEA28
:104CE0000500104670BD04F06BF90446304604F030
:104CF0006EF90546304604F079F91FE004F058F9E2
:104D00000446304604F079F90546304604F06EF961
:104D10000246E2E77064080080969800400D0300A8
:104D2000340200200503000004F042F90446304636
:104D300004F063F90546304604F050F90246CCE72A
:104D400009B102F04EBB02F087BB10B5002402F09F
:104D50007FFB204610BD2DE9F04106460868E8B00B
:104D60000C4620380090D4E90801CDE90C01208DD3
:104D7000ADF83800F42204F12C010FA80DF073FFF8
:104D8000D4F8200104F592744C90B4E8AF110DF5FD
:104D90009A7E8EE8AF11B4E8AF100DF5AA7888E8D6
:104DA000AF10A26874E85801CDE95C015E922569F4
:104DB000ADF80E5020798DF8040060798DF805006B
:104DC000A0798DF80600E0798DF80700207A8DF83B
:104DD0000800607A8DF80900231DA07A8DF80A007A
:104DE000D8798DF80B00187A8DF80C00188AADF878
:104DF0001000588AADF81200988AADF81400D88ACD
:104E0000ADF81600188BADF81800588BADF81A00E5
:104E10006946304602F065F900281CBF68B0BDE85D
:104E2000F08160A9304604F0F0F800281CBF68B09B
:104E3000BDE8F0812A4648F286013046609503F0CD
:104E4000B8FC04F5B67462AF94E81F1087E81F1031
:104E500060A9304604F0F6F868B0BDE8F0812DE9AD
:104E6000F041E8B00D460646694602F0B0F90098F8
:104E7000F42220302860DDE90C01C5E90801BDF805
:104E8000380028850FA905F12C000DF0ECFE4C9898
:104E9000C5F820010DF59A7E05F592759EE89F11E3
:104EA000A5E89F110DF5AA7898E89F10A5E89F1036
:104EB000DDE95C015E9AA5F5AE74AA6065E858016B
:104EC0009DF8040020709DF8050060709DF80600B4
:104ED000A0709DF80700E0709DF8080020719DF813
:104EE000090060719DF80A00A0719DF80B00E07147
:104EF0009DF80C002072BDF810002082BDF8120051
:104F00006082BDF81400A082BDF81600E082BDF8F2
:104F100018002083BDF81A006083BDF80E00E06021
:104F200060A9304604F071F800281CBF68B0BDE8E5
:104F3000F0816099E160BDF884112182BDF886118D
:104F400062AF618297E85E1005F5B67585E85E1080
:104F500068B0BDE8F0812DE9F04F8246FE48EBB025
:104F600041F27421D0E90874008B0AEB0108002596
:104F700001B22E46E9460DF1100B6AAA504600F028
:104F8000E8FF619069465046FFF769FF002009EB92
:104F90008001896B0D4400291CBF711CCEB2401CDE
:104FA0000C28F4DB9DF9A80110F1170F09D007F5C3
:104FB000806085429CBFC7F58060A84201D8032E5F
:104FC00021D2CBF8004040F233104FF4CD71C8F835
:104FD0000040CDE91010CDE90E010420002109EBBD
:104FE0008002401C91630C28F9DB002104FB014086
:104FF00009EB8102491CC2F86C010629F6DB6946FF
:105000005046FFF7A8FE619800281CBF6BB0BDE8B2
:10501000F08F62A9504603F0F8FF48F2860150462F
:10502000629A03F0C6FB61906BB0BDE8F08F012976
:105030001EBF03296FF00300704703F09FB92DE9ED
:10504000F34F044600F580509DB090F8CC031990C2
:105050000026204603F0B4FF1A900020A4F85A005E
:10506000A4F85C0004F5E051A4F85E008863C8630E
:105070000864B948B046C146818B09B21791808A4D
:1050800001210FFA80FB0BEBDB7001EB60010BEBF6
:10509000600009B200B2CDE91B0141F2384004EBD7
:1050A000000A179863E02046FFF711FD060019D1AA
:1050B00020464FF4FA610AF0AEFD6D462746FF2206
:1050C0005C2128460DF0E1FD52460221384602F0EF
:1050D000B2FE2A465146384600F0A1FA2046E17851
:1050E00003F040F900252F462AE020464FF4FA61EC
:1050F0000AF091FD88B926466846CDF860D0FF22B7
:105100005C210DF0C2FD52460221304602F093FEB2
:1051100051463046189A00F082FA9DF81A1000297C
:105120000CBF0121002120B919B1BDF918006D1C77
:1051300080442046E17803F015F90646781CC7B292
:1051400026B95D45BCBF1B988742CEDB1C98A9449D
:105150008542B8BF6FF017062546204602F0F4FAE4
:10516000284601F0F4FC1798401E00B21790002862
:1051700001DD002E97D01A98002801BF1998012848
:10518000204603F015FFB8F1000FA5BFC9EB094099
:1051900040456FF01F06002E17D1B9F1000F14DD46
:1051A00009EBD97008EB600090FBF9F01E99081A22
:1051B0000021A4F85A10A4F85C00A4F85E00204670
:1051C00004F148010BF006FB06461FB03046BDE86F
:1051D000F08F2DE9F04F044600F580509FB090F815
:1051E000CC0319900026204603F0EAFE1A90002016
:1051F000A4F85A003221A4F85C10A4F85E1004F55B
:10520000E051B0468863C86308645348C146018DC5
:1052100009B21B91818B09B21791808A01210FFA83
:1052200080FB0BEBDB7001EB60010BEB600009B264
:1052300000B2CDE91C0141F2384004EB000A179896
:1052400063E02046FFF743FC060019D120464FF4E7
:10525000FA610AF0E0FC6D462746FF225C212846F1
:105260000DF013FD52460221384602F0E4FD2A46B5
:105270005146384600F0D3F92046E17803F072F841
:1052800000252F462AE020464FF4FA610AF0C3FCBD
:1052900088B926466846CDF860D0FF225C210DF023
:1052A000F4FC52460221304602F0C5FD514630461C
:1052B000189A00F0B4F99DF81A1000290CBF0121CA
:1052C000002120B919B1BDF918006D1C8044204699
:1052D000E17803F047F80646781CC7B226B95D4569
:1052E000BCBF1C988742CEDB1D98A9448542B8BF3D
:1052F0006FF017062546204602F026FA284601F0F0
:1053000026FC1798401E00B21790002801DD002EE1
:1053100097D01A98002801BF19980128204603F059
:1053200047FEB8F1000FA5BFC9EB094040456FF03B
:105330001F06002E1ED1B9F1000F1BDD09EBD9703D
:1053400008EB600090FBF9F000B2C0F132011B984D
:105350000844002102E0000034020020A4F85A10A2
:10536000A4F85C00A4F85E00204604F148010BF0AC
:1053700031FA06461FB03046BDE8F08F2DE9F04FF8
:10538000A7B00E4604460027FEA03D4600682690C2
:1053900004F58050189719971A971B97179090F853
:1053A000CC032290204603F00BFE2390A4F85A5021
:1053B000A4F85C5004F5E050A4F85E508563C56322
:1053C000056494F8CB03BB46AA2802BF94F8CA032D
:1053D000EB284FF0010BEC48808A4FEA400000B206
:1053E00000EBD0711C904FF0010000EB610000B2A7
:1053F00025901C9800EB610000B224904FF42950D6
:1054000041F23841005D219004EB0100209030B260
:105410001F909EE026A810F80B102046FFF7F6FA22
:105420002046FFF754FB07001AD120464FF4FA61DB
:105430000AF0F1FB6E46A046FF225C213046209D1B
:105440000DF023FC2A460221404602F0F4FC3246CD
:105450002946404600F0E3F82046E17802F082FF5A
:105460004FF0000A5646D1465546D04634E0204615
:105470004FF4FA610AF0CFFB88B96846CDE91D0404
:10548000FF225C21209F0DF000FC3A4602211E986D
:1054900002F0D1FCDDE91D20394600F0C0F89DF88E
:1054A0001A1000290CBF0121002194F82E2070B998
:1054B00069B1BDF9180012F0010F03D08144701CCE
:1054C000C6B202E08044681CC5B206EB050A20465D
:1054D000E17802F047FF07462FB91C988245BCBF10
:1054E00024988245C3DB25988245B8BF6FF0170723
:1054F000A246204602F028F9504601F028FBB9F1F7
:10550000000FA8BFB8F1000F07DBC6EB0640484507
:10551000A4BFC5EB0540404502DA6FF01F0714E059
:105520009FB946B109EB560090FBF6F01F99081A97
:1055300018A921F81B0045B108EB550090FBF5F0C8
:105540001F99081A1AA921F81B000BF101000FFA84
:1055500080FBBBF1030F02DA002F3FF45BAF23980F
:10556000002801BF22980128204603F021FDEFB951
:10557000BDF860101798A0F8381C1798BDF868108F
:10558000A0F83A1C1798BDF86210A0F83C1C1798B8
:10559000BDF86A10A0F83E1C1798BDF86410A0F87A
:1055A000401C1798BDF86C10A0F8421C20462199A9
:1055B000FFF72CFA27B03846BDE8F08FF0B5064665
:1055C00072A087B02024006815460090012908BF0A
:1055D000002003D0022914BF022001201DF8007012
:1055E00003A904A8CDE9000105AB06AA3946304657
:1055F00001F0AFFE00281CBF07B0F0BDDDE90301DC
:10560000CDE900100295BDF8182039463046059BBB
:1056100001F0F7FA002808BFF47007B0F0BD2DE9DB
:10562000F74F86B091460698049000200390887C3E
:10563000507191F8960182F8580000201060C878E7
:105640001071887C8A46009000280CBF4FF0010B37
:1056500083464FF00008BBF1000F40F2C781069867
:1056600000F50050029008EB880009EB800000F183
:10567000080508EB480000EB08100AEB800000F179
:1056800014070398002840F0A78199F80410009AA5
:105690000591069E9AF8103000218DF80410B7F895
:1056A00030C097F84A104FEA4C2CC5F804C0B7F840
:1056B00034C030464FEA4C2CC5F808C0B7F83CC09F
:1056C00006F598744FEA4C2CC5F80CC0B7F846C0E4
:1056D000A5F810C0B7F848C0A5F800C0B7F844C096
:1056E00001F01F01A5F802C0032B10D004DC012B30
:1056F00018BF022B04D10AE00D2B02D0112B06D0CB
:105700000023AB74DBB21A4304D073B12EE005233F
:10571000AB74F7E7FF21A97400216960E96041F6E5
:10572000FF7129822980698020E0132908BF0621A2
:105730001BD00DDC052908BF042116D006290CBF9B
:105740000121072911D0092908BF00210DD00BE044
:10575000142908BF072108D0162908BF0B2104D03F
:10576000172908BF0C2100D0FF21A97401AA48F213
:10577000910100F06FFD0598B5F910E000F001010E
:10578000002005E00102030034020020211E1B005E
:10579000E8749DF80420002A49D0AA7C072A18BF83
:1057A000042A44D106EB080202F5005393F8D020F6
:1057B000072A18BF042A05D0002A04BF93F8D42072
:1057C000012A34D1029A96F8773492F8D820A3F1BE
:1057D000010C62451CBF7F339A421BD106EB480087
:1057E00000F500502A8AB0F8C800A2EB00007278D9
:1057F00000B21B2A7BD01E2A19D1B4F98E20824216
:10580000BCBFB4F9903098422CDA002918BFB4F923
:10581000A40027D0298A014429826988014469802B
:105820002988084428800120E8740020A87406EB29
:10583000480000F50050A0F8C8E006EB080000F5AD
:105840000050A97C80F8D010E97C80F8D410029830
:1058500096F8771480F8D810A97CB5F910000029C3
:105860007ED1AFE05242824209DDB4F9902052422B
:10587000904204DD002908BFB4F9A200CAD0B4F9EF
:1058800092208242BCBFB4F99430984204DA0029D5
:1058900008BFB4F9A600BDD05242824209DDB4F976
:1058A00094205242904204DD002918BFB4F9A800A8
:1058B000B0D1B4F996208242BCBFB4F99830984276
:1058C00004DA002918BFB4F9AC00A3D152428242D5
:1058D00009DDB4F998205242904204DD002908BF46
:1058E000B4F9AA0096D0B4F99A20824200E023E0ED
:1058F000BCBFB4F99C30984204DA002908BFB4F95F
:10590000AE0087D0524282420ADDB4F99C20524256
:10591000904205DD002918BFB4F9B0007FF47AAFDA
:10592000B4F9A0108142C2BFB4F99E108842B4F904
:10593000B2007FF77CAF6DE7B4F9B6208242BCBFFE
:10594000B4F9B830984205DA002908BFB4F9CA00A2
:105950003FF460AF524282420CDDB4F9B82000E05F
:105960003AE05242904205DD002918BFB4F9CC005C
:105970007FF450AFB4F9BA208242BCBFB4F9BC3056
:10598000984205DA002918BFB4F9D0007FF442AF7D
:10599000524282420ADDB4F9BC205242904205DDF7
:1059A000002908BFB4F9CE003FF434AFB4F9C010F9
:1059B0008142C2BFB4F9BE108842B4F9D2007FF769
:1059C00036AF27E7002807DA184949688842A7BF99
:1059D000002028820E20A874F88AA9F85A0008F13D
:1059E000010000F0FF08D845FFF43DAEBBF1040F05
:1059F0003CBF0021FF2215D2049800EB4B0000F5BC
:105A00000050A0F8C8100498584400F5005080F8E1
:105A1000D02080F8D4100BF1010000F0FF0BBBF197
:105A2000040FE9D3039809B0BDE8F08F34020020D9
:105A300030B583B0044600200D468DF8040001AA5D
:105A40003021204609F0ADFBD8B99DF8041084F848
:105A500042132046294604F072FC90B920460AF011
:105A600030F970B902236A468921204609F035FBD6
:105A700038B99DF8002084F89F239DF8012084F810
:105A8000A02394F89F13002801F01F02214684F8F8
:105A90009F231CBF03B030BD084604F078FC0028EB
:105AA0001CBF03B030BD0021204604F048FC03B009
:105AB00030BD70B586B00E46044600F50C7504F096
:105AC0005AFC00286CD1B4F816236989A889CDE95D
:105AD000000102922B89697820466A6805F0FEFD74
